:100000000C9446000C9465000C9465000C946500FB
:100010000C9465000C9465000C9465000C946500CC
:100020000C9465000C9465000C9465000C946500BC
:100030000C9465000C9465000C9465000C946500AC
:100040000C9467000C9465000C9465000C9465009A
:100050000C9465000C9465000C9465000C9465008C
:100060000C9465000C9465000C9465000C9465007C
:100070000C9465000C9465000C94E8000C946500E9
:100080000C9465000C9465000C94650011241FBE4F
:10009000CFEFD0E1DEBFCDBF11E0A0E0B1E0E0E303
:1000A000FAE000E00BBF02C007900D92A836B1073E
:1000B000D9F713E0A8E6B1E001C01D92AA3FB1074D
:1000C000E1F70E9438010C94D1040C9400001F92B7
:1000D0000F920FB60F9211242F938F939F9383E863
:1000E00082BF8091680190916901019690936901A6
:1000F00080936801845F914018F110926901109219
:10010000680180916A018130D9F480916C0181305D
:10011000B9F4809177018F5F809377018C3380F001
:10012000809174018F5F80937401109277018C33FA
:1001300038F0809172018F5F809372011092740188
:100140009F918F912F910F900FBE0F901F90189538
:1001500090917601913021F4809173018634C1F041
:1001600090917601923021F480917301833381F074
:1001700090917601933021F480917301843341F0A2
:1001800090917601943031F480917301823311F4AF
:1001900090936D011092760180917301853411F472
:1001A00081E00BC080917301833311F482E005C0BC
:1001B00080917301813321F483E080937601089567
:1001C00080917301843419F484E08093760108955A
:1001D0001F920F920FB60F920BB60F9211242F930E
:1001E0003F934F935F936F937F938F939F93AF93BF
:1001F000BF93EF93FF938FB78F778FBF80919C0052
:10020000809373010E94A8008FB780688FBFFF9111
:10021000EF91BF91AF919F918F917F916F915F917E
:100220004F913F912F910F900BBE0F900FBE0F90EB
:100230001F9018958FB78F778FBF0E942C0280E098
:1002400040E452E46FE070E00E943A0281E040E84E
:1002500055E260E070E00E943A020E94A3020E9410
:100260002303149AB89AB99A8FB780688FBF0895FC
:100270009F92AF92BF92CF92DF92EF92FF920F9335
:100280001F93CF93DF930E941A0111E034EFA32E46
:1002900031E0B32E2CE3922E98EEC92E93E0D92EA6
:1002A0008CEDE82E85E0F82EC0E9D1E080916A015E
:1002B0008823D9F46AE00E94B002883C910558F086
:1002C00010936A0180E061E04FEF22E000E90E94B4
:1002D000B8041C9A0AC010926A0180E063E045E30A
:1002E00022E000E90E94B8041C9880916D018823E7
:1002F00041F080916A01813021F482E080936A01AB
:10030000C09880916A01813079F510926B018091DB
:100310006C01813091F464E0409172010E94960377
:1003200081E067E0409174010E94960381E06AE0F9
:10033000409177010E949603B9CF8FEF9FEFFE01A6
:100340003197F1F70197D9F780E060E040E051E0A4
:100350000E948B0381E060E041E151E00E948B0349
:10036000C09A10936C01A2CF80916A01823009F08B
:100370005DC080E060E042E251E00E948B0381E0DA
:1003800060E043E351E00E948B0380916D0180FFA8
:1003900003C010926E0102C010936E0180916E0135
:1003A0009091720120917401882371F4999DC0018C
:1003B0001124820F911D9C012E9DC0012F9D900D37
:1003C0003E9D900D11240DC0999DC0011124820FF6
:1003D000911D9C012C9DC0012D9D900D3C9D900D6B
:1003E00011248C509E4F9093670180936601409139
:1003F00066015091670180E066E00E94B50380E0ED
:100400006AE00E94B002883C910508F04FCF10923C
:100410006A0110926D011092720110927401109293
:100420007701B0926701A092660140CF10926C01F3
:1004300080916B01813009F439CF80E060E044E4C1
:1004400051E00E948B0381E060E045E551E00E94AD
:100450008B0310936B012ACF87B7816087BF12BED1
:1004600086E083BF089587B7816087BF12BE86E0AC
:1004700083BF08951F93182F9A01AB0184E0220FC8
:10048000331F441F551F8A95D1F760E074E284EF53
:1004900090E00E94F40421503040112371F4309315
:1004A000900029B980E28BB988E18AB986E080930F
:1004B00095001098119A579A16C01130A1F43093F4
:1004C00098002093990080E280939B0088E18093BC
:1004D0009A0086E080939D008A988B9A80919A007A
:1004E000806880939A001F910895882321F08130BD
:1004F00031F080E008955F9BFECF8CB1089580912C
:100500009B0087FFFCCF80919C000895882319F001
:10051000813059F404C05D9BFECF6CB90895809181
:100520009B0085FFFCCF60939C00089587B9369AA5
:100530003699FECF24B130E045B1942F80E0282BCE
:10054000392BC90108951092610017B816B8309A76
:10055000319A329A3598379A81E087B9369A089558
:100560007F928F929F92AF92BF92CF92DF92EF9243
:10057000FF920F931F93DF93CF93CDB7DEB7782E03
:10058000E62E8DB69EB6C62EDD24C601880F991FB5
:100590002DB73EB7281B390B0FB6F8943EBF0FBEE0
:1005A0002DBFADB6BEB60894A11CB11C00E010E092
:1005B000FF240EC0872D0E949602EF2DF0E0EE0F73
:1005C000FF1FEA0DFB1D91838083080F191FF39411
:1005D000FE1480F3C801B6010E94E004CB010FB6FF
:1005E000F8949EBE0FBE8DBECF91DF911F910F91EB
:1005F000FF90EF90DF90CF90BF90AF909F908F9043
:100600007F900895482F8CE291E020E931E0F901D4
:100610003197F1F70197D9F71BBA85E0982F9A9592
:10062000F1F794E09BBB8A95F1F745BB83E08BBB68
:100630008CE291E020E931E0F9013197F1F701977F
:10064000D9F71BBA08951F938FEF84BB87E08ABB4D
:1006500084EF91E020E931E0F9013197F1F701975A
:10066000D9F78CE30E94020315ED812F8A95F1F7EB
:100670008FE00E9402031A95F1F781E00E940203C5
:1006800080E49FE10197F1F786E00E9402031F9149
:10069000089521E02BBB95E0392F3A95F1F79BBBEC
:1006A0009A95F1F785BB2BBB8CE291E020E931E014
:1006B000F9013197F1F70197D9F71BBA08950E9414
:1006C000490388EC90E020E931E0F9013197F1F736
:1006D0000197D9F70895CF93DF93EC0103C00E94EF
:1006E0005F03219688818823D1F7DF91CF91089508
:1006F000882319F4862F805802C0862F80540E94C8
:10070000020308951F93142F0E947803812F0E94E3
:100710005F031F9108950F931F938A010E9478032E
:10072000C8010E946B031F910F910895FF920F93D0
:100730001F93F82E162F042F842F6AE00E94D404F2
:10074000482F405D8F2D612F0E9482031F5F802FF5
:100750006AE00E94D404905D8F2D612F492F0E9482
:1007600082031F910F91FF900895EF92FF920F93D4
:100770001F93082F162F7A01CA0160E177E20E94C9
:10078000E004462F405D802F612F0E9482031F5F8F
:10079000C70160E177E20E94E00468EE73E00E9426
:1007A000E004462F405D802F612F0E9482031F5F6F
:1007B000C70168EE73E00E94E00464E670E00E9406
:1007C000E004462F405D802F612F0E9482031F5F4F
:1007D000C70164E670E00E94E0046AE070E00E94F5
:1007E000E004462F405D802F612F0E9482031F5F2F
:1007F000C7016AE070E00E94E004482F405D802F4E
:10080000612F0E9482031F910F91FF90EF90089536
:10081000282F5091F9039091F802A9EFB2E040E03F
:1008200013C080E090E0019635E782339307D9F753
:100830005093F80281E010C0E92FF0E0E850FE4F3D
:1008400080818D934F5F9F5F421718F49517A1F732
:10085000E8CF9093F80280E090917B039E3F89F16E
:10086000882321F02F3F11F05093F802443048F1D3
:100870008091F9028F3F09F58091FA028F3FE9F4E8
:100880008091FB028917C9F42091FC0230E0842F8B
:1008900090E004972817390781F4EBEFF2E090E03D
:1008A0004350242F30E04D5F24503D4F8191980FED
:1008B000E217F307D9F79F3F21F05093F80280E049
:1008C0000895842F0895FF920F931F93CF93DF9382
:1008D0009FEF9093790390937A0380937B034E5F0D
:1008E00040937C03425060937D03E8E7F1E0AEE77C
:1008F000B3E0242F30E02E0F3F1F02C081918D9373
:10090000E217F307D9F786E0F82EF40E52E040E044
:100910002F2D30E02150304003C08081480F5F5FB1
:10092000852F90E0FC01E758FC4F82179307ACF34A
:10093000409540831B981A9A09E713E0CF2DD0E029
:10094000C00FD11F07C05E9A80E0F80161918F014E
:100950000E9486020C171D07B1F75E9BFECF1A9806
:100960001B9A8F2DDF91CF911F910F91FF900895CA
:100970000F939EE1909378014093790160937A01FF
:1009800000937B0120937C0163E045E00E946304B7
:100990008093710186E00E940804809375010F9195
:1009A0000895F8940C941605991B79E004C0991FDA
:1009B000961708F0961B881F7A95C9F780950895B9
:1009C000AA1BBB1B51E107C0AA1FBB1FA617B70775
:1009D00010F0A61BB70B881F991F5A95A9F7809591
:1009E0009095BC01CD010895A1E21A2EAA1BBB1B54
:1009F000FD010DC0AA1FBB1FEE1FFF1FA217B307EB
:100A0000E407F50720F0A21BB30BE40BF50B661F00
:100A1000771F881F991F1A9469F7609570958095C4
:100A200090959B01AC01BD01CF010895F894FFCFD3
:100A300020202020202054494D4520202020202007
:100A4000002020202020203A20203A202020202092
:100A50002000434F5354203A2020202020202020E3
:100A60002020002020205468616E6B20596F752172
:100A7000202020002020205468697320706C61635E
:100A8000652020200020202020697320656D70746F
:080A9000792020202000F40170
:00000001FF
