:100000000C9446000C9458000C9458000C94580022
:100010000C9458000C9458000C9471010C945800E6
:100020000C9401010C9458000C9458000C94580046
:100030000C9458000C9458000C9458000C945800E0
:100040000C945A000C9458000C9458000C945800CE
:100050000C9458000C9458000C9458000C945800C0
:100060000C9458000C9458000C9458000C945800B0
:100070000C9458000C9458000C9458000C945800A0
:100080000C9458000C9458000C94580011241FBE76
:10009000CFEFD0E1DEBFCDBF11E0A0E0B1E001C005
:1000A0001D92A430B107E1F70E9416020C94890258
:1000B0000C9400001F920F920FB60F920BB60F9286
:1000C00011248F93EF93FF93E5E6F0E08081816048
:1000D000808380818260808385E38A95F1F70000C8
:1000E00080818E7F808380818D7F808312BEFF918F
:1000F000EF918F910F900BBE0F900FBE0F901F903E
:10010000189587B7816087BF87E083BF88E382BF88
:1001100008951092900087E689B980E28BB988E152
:100120008AB986E0809395001098119A08951092EC
:10013000980087E68093990080E280939B0088E195
:1001400080939A0086E080939D008A988B9A089508
:10015000882319F0813059F404C05D9BFECF6CB93F
:10016000089580919B0085FFFCCF60939C000895CB
:10017000EF92FF920F931F93CF93DF93EC0160E117
:1001800077E20E9438027C01605D7F4F81E00E942F
:10019000A80008EE13E0C701B8010E943802605DB4
:1001A0007F4F81E00E94A800CE01B8010E94380272
:1001B00004E610E0B8010E943802605D7F4F81E0E4
:1001C0000E94A800CE01B8010E9438020AE010E0A7
:1001D000B8010E943802605D7F4F81E00E94A80054
:1001E000CE01B8010E943802BC01605D7F4F81E002
:1001F0000E94A800DF91CF911F910F91FF90EF9087
:1002000008951F920F920FB60F920BB60F92112402
:100210002F933F934F935F936F937F938F939F930E
:10022000AF93BF93EF93FF938AB7803C21F412BE44
:1002300080E88ABF43C08AB7803809F03FC013BE48
:1002400082B790E0909301018093000160910001DA
:100250007091010186E0660F771F8A95E1F780E0D3
:1002600090E02CEF35E840E050E00E94190220E8D1
:1002700034E84EE150E00E944C022F5F3F4F309334
:1002800003012093020180910201909103010E94D9
:10029000B8008FEF93EDA0E381509040A040E1F7CC
:1002A00000C000008CE08ABF87E083BF88E382BF84
:1002B00089B7806289BF89B78F7789BFFF91EF9136
:1002C000BF91AF919F918F917F916F915F914F916E
:1002D0003F912F910F900BBE0F900FBE0F901F906C
:1002E00018951F920F920FB60F920BB60F92112412
:1002F0002F933F934F935F936F937F938F939F932E
:10030000AF93BF93EF93FF938AB78C3021F412BE63
:1003100088E08ABF43C08AB7883009F03FC013BE67
:1003200082B790E0909301018093000160910001F9
:100330007091010196E0660F771F9A95E1F780E0D2
:1003400090E02CEF35E840E050E00E94190220E8F0
:1003500034E84EE150E00E944C022F5F3F4F309353
:1003600003012093020180910201909103010E94F8
:10037000B8008FEF93EDA0E381509040A040E1F7EB
:1003800000C0000080EC8ABF87E083BF88E382BFA3
:1003900089B78F7D89BF89B7806889BFFF91EF9149
:1003A000BF91AF919F918F917F916F915F914F918D
:1003B0003F912F910F900BBE0F900FBE0F901F908B
:1003C00018958AB788608ABF8AB784608ABF89B760
:1003D000806289BF88B78F7D88BF159808958AB7D6
:1003E0008F778ABF8AB78F7B8ABF89B78F7789BF9C
:1003F00088B78F7788BF179808958FB78F778FBF8B
:100400000E9481000E9489000E9497000E94E101E1
:100410000E94EF01E4E6F0E08081816080838081CA
:10042000826080838FB780688FBF08950E94FD012E
:10043000FFCF629FD001739FF001829FE00DF11DFD
:10044000649FE00DF11D929FF00D839FF00D749F4E
:10045000F00D659FF00D9927729FB00DE11DF91FFA
:10046000639FB00DE11DF91FBD01CF011124089557
:10047000AA1BBB1B51E107C0AA1FBB1FA617B707CA
:1004800010F0A61BB70B881F991F5A95A9F78095E6
:100490009095BC01CD01089597FB092E05260ED03D
:1004A00057FD04D014D00AD0001C38F45095409564
:1004B000309521953F4F4F4F5F4F0895F6F7909538
:1004C0008095709561957F4F8F4F9F4F0895A1E262
:1004D0001A2EAA1BBB1BFD010DC0AA1FBB1FEE1FBE
:1004E000FF1FA217B307E407F50720F0A21BB30B09
:1004F000E40BF50B661F771F881F991F1A9469F785
:1005000060957095809590959B01AC01BD01CF01E0
:060510000895F894FFCFEE
:00000001FF
