:100000000C9446000C9465000C9465000C946500FB
:100010000C9465000C9465000C9465000C946500CC
:100020000C9465000C9465000C9465000C946500BC
:100030000C9465000C9465000C9465000C946500AC
:100040000C9467000C9465000C9465000C9465009A
:100050000C9465000C9465000C9465000C9465008C
:100060000C9465000C9465000C9465000C9465007C
:100070000C9465000C9465000C94E8000C946500E9
:100080000C9465000C9465000C94650011241FBE4F
:10009000CFEFD0E1DEBFCDBF11E0A0E0B1E0E4E200
:1000A000FAE000E00BBF02C007900D92A836B1073E
:1000B000D9F713E0A8E6B1E001C01D92AA3FB1074D
:1000C000E1F70E9439010C94CB040C9400001F92BC
:1000D0000F920FB60F9211242F938F939F9383E863
:1000E00082BF8091680190916901019690936901A6
:1000F00080936801845F914018F110926901109219
:10010000680180916A018130D9F480916C0181305D
:10011000B9F4809174018F5F809374018C3380F007
:10012000809172018F5F80937201109274018C3301
:1001300038F0809170018F5F80937001109272018E
:100140009F918F912F910F900FBE0F901F90189538
:1001500090917301913021F4809171018634C1F046
:1001600090917301923021F480917101833381F079
:1001700090917301933021F480917101843341F0A7
:1001800090917301943031F480917101823311F4B4
:1001900090936D011092730180917101853411F477
:1001A00081E00BC080917101833311F482E005C0BE
:1001B00080917101813321F483E08093730108956C
:1001C00080917101843419F484E08093730108955F
:1001D0001F920F920FB60F920BB60F9211242F930E
:1001E0003F934F935F936F937F938F939F93AF93BF
:1001F000BF93EF93FF938FB78F778FBF80919C0052
:10020000809371010E94A8008FB780688FBFFF9113
:10021000EF91BF91AF919F918F917F916F915F917E
:100220004F913F912F910F900BBE0F900FBE0F90EB
:100230001F9018958FB78F778FBF0E949F0380E024
:1002400040E452E46FE070E00E94AD0381E040E8DA
:1002500055E260E070E00E94AD030E9440030E94FE
:100260004E02149A129A139AB89A8FB780688FBF69
:100270000895AF92BF92CF92DF92EF92FF920F93C9
:100280001F93CF93DF930E941A0180E063E045E360
:1002900022E000E90E94B70411E032E0A32E2CE333
:1002A000B22E98EEC92E93E0D92E8CEDE82E85E083
:1002B000F82EC0E9D1E080916A01882359F46AE000
:1002C0000E944D03883C910518F010936A0102C00A
:1002D00010926A0180916D01882339F080916A0142
:1002E000813019F4A0926A01C09880916A0181302E
:1002F000B9F510926B0180916C01813091F464E04A
:10030000409170010E94C10281E067E0409172015A
:100310000E94C10281E06AE0409174010E94C10222
:10032000CACF80E49CE9FE013197F1F70197D9F734
:1003300080E060E040E051E00E94B60281E060E0D1
:1003400041E151E00E94B60280E061E04FEF22E01F
:1003500000E90E94B7041C9AC09A10936C01ABCFBD
:1003600080916A01823009F063C080E060E042E27F
:1003700051E00E94B60281E060E043E351E00E9458
:10038000B60280916D0180FF03C010926E0102C021
:1003900010936E0180916E01909170012091720115
:1003A000882371F49B9DC0011124820F911D9C0133
:1003B0002E9DC0012F9D900D3E9D900D11240DC0CE
:1003C0009B9DC0011124820F911D9C012C9DC00199
:1003D0002D9D900D3C9D900D11249093670180936D
:1003E0006601409166015091670180E066E00E94DD
:1003F000E00280E063E045E322E000E90E94B70408
:1004000080E06AE00E944D03883C910508F053CFDC
:1004100010926A011C9810926D0110927001109256
:10042000720110927401109267011092660143CF1D
:1004300010926C0180916B01882309F03CCF60E041
:1004400044E451E00E94B60281E060E045E551E0FD
:100450000E94B60210936B012ECF482F8CE291E0E0
:1004600020E931E0F9013197F1F70197D9F71BBA8B
:1004700085E0982F9A95F1F794E09BBB8A95F1F768
:1004800045BB83E08BBB8CE291E020E931E0F901D0
:100490003197F1F70197D9F71BBA08951F938FEFA2
:1004A00084BB87E08ABB84EF91E020E931E0F90169
:1004B0003197F1F70197D9F78CE30E942D0215EDE2
:1004C000812F8A95F1F78FE00E942D021A95F1F79E
:1004D00081E00E942D0280E49FE10197F1F786E020
:1004E0000E942D021F91089521E02BBB95E0392F2A
:1004F0003A95F1F79BBB9A95F1F785BB2BBB8CE244
:1005000091E020E931E0F9013197F1F70197D9F74E
:100510001BBA08950E94740288EC90E020E931E053
:10052000F9013197F1F70197D9F70895CF93DF9348
:10053000EC0103C00E948A02219688818823D1F7AA
:10054000DF91CF910895882319F4862F805802C037
:10055000862F80540E942D0208951F93142F0E940D
:10056000A302812F0E948A021F9108950F931F9367
:100570008A010E94A302C8010E9496021F910F9156
:100580000895FF920F931F93F82E162F042F842F98
:100590006AE00E94CE04482F405D8F2D612F0E949B
:1005A000AD021F5F802F6AE00E94CE04905D8F2D08
:1005B000612F492F0E94AD021F910F91FF90089566
:1005C000EF92FF920F931F93082F162F7A01CA0103
:1005D00060E177E20E94DA04462F405D802F612FB0
:1005E0000E94AD021F5FC70160E177E20E94DA045A
:1005F00068EE73E00E94DA04462F405D802F612F81
:100600000E94AD021F5FC70168EE73E00E94DA042A
:1006100064E670E00E94DA04462F405D802F612F6F
:100620000E94AD021F5FC70164E670E00E94DA0419
:100630006AE070E00E94DA04462F405D802F612F4F
:100640000E94AD021F5FC7016AE070E00E94DA04F9
:10065000482F405D802F612F0E94AD021F910F91A6
:10066000FF90EF90089587B9369A3699FECF24B15E
:1006700030E045B1942F80E0282B392BC901089533
:100680001092610017B816B8309A319A329A35989C
:10069000379A81E087B9369A08957F928F929F9218
:1006A000AF92BF92CF92DF92EF92FF920F931F9380
:1006B000DF93CF93CDB7DEB7782EE62E8DB69EB6FC
:1006C000C62EDD24C601880F991F2DB73EB7281B03
:1006D000390B0FB6F8943EBF0FBE2DBFADB6BEB6F8
:1006E0000894A11CB11C00E010E0FF240EC0872D6F
:1006F0000E943303EF2DF0E0EE0FFF1FEA0DFB1D0C
:1007000091838083080F191FF394FE1480F3C801AE
:10071000B6010E94DA04CB010FB6F8949EBE0FBE5C
:100720008DBECF91DF911F910F91FF90EF90DF90E1
:10073000CF90BF90AF909F908F907F90089587B794
:10074000816087BF12BE86E083BF089587B781604E
:1007500087BF12BE86E083BF08951F93182F9A01AA
:10076000AB0184E0220F331F441F551F8A95D1F738
:1007700060E074E284EF90E00E94EE04215030408B
:10078000112371F43093900029B980E28BB988E18C
:100790008AB986E0809395001098119A579A16C0EE
:1007A0001130A1F4309398002093990080E2809357
:1007B0009B0088E180939A0086E080939D008A9850
:1007C0008B9A80919A00806880939A001F91089577
:1007D000882321F0813031F080E008955F9BFECFC7
:1007E0008CB1089580919B0087FFFCCF80919C0085
:1007F0000895882319F0813059F404C05D9BFECF21
:100800006CB9089580919B0085FFFCCF60939C009C
:100810000895282F5091F9039091F602A8EFB2E0C5
:1008200040E013C080E090E0019635E78233930703
:10083000D9F75093F60281E010C0E92FF0E0EA50BA
:10084000FE4F80818D934F5F9F5F421718F495177D
:10085000A1F7E8CF9093F60280E090917B039E3F52
:1008600089F1882321F02F3F11F05093F602443094
:1008700048F18091F8028F3F09F58091F9028F3F8E
:10088000E9F48091FA028917C9F42091FB0230E063
:10089000842F90E004972817390781F4EAEFF2E0FB
:1008A00090E04350242F30E04D5F25503D4F819123
:1008B000980FE217F307D9F79F3F21F05093F60204
:1008C00080E00895842F0895FF920F931F93CF9394
:1008D000DF939FEF9093790390937A0380937B0348
:1008E0004E5F40937C03425060937D03E5E7F1E067
:1008F000AEE7B3E0242F30E02E0F3F1F02C08191FE
:100900008D93E217F307D9F786E0F82EF40E52E044
:1009100040E02F2D30E02150304003C08081480F4F
:100920005F5F852F90E0FC01E758FC4F821793072B
:10093000ACF3409540831A9A09E713E0CF2DD0E03D
:10094000C00FD11F07C05E9A80E0F80161918F014E
:100950000E94F9030C171D07B1F783B1847083B9A6
:100960008F2DDF91CF911F910F91FF9008950F93DD
:100970009EE1909375014093760160937701009317
:1009800078012093790163E045E00E94640480933C
:10099000F7020F910895F8940C941005991B79E0D3
:1009A00004C0991F961708F0961B881F7A95C9F7FF
:1009B00080950895AA1BBB1B51E107C0AA1FBB1F4E
:1009C000A617B70710F0A61BB70B881F991F5A95DB
:1009D000A9F780959095BC01CD010895A1E21A2E4A
:1009E000AA1BBB1BFD010DC0AA1FBB1FEE1FFF1FD3
:1009F000A217B307E407F50720F0A21BB30BE40B23
:100A0000F50B661F771F881F991F1A9469F7609569
:100A10007095809590959B01AC01BD01CF01089523
:040A2000F894FFCF78
:100A240020202020202054494D4520202020202013
:100A3400002020202020203A20203A20202020209E
:100A44002000434F5354203A2020202020202020EF
:100A54002020002020205468616E6B20596F75217E
:100A6400202020002020205468697320706C61636A
:100A7400652020200020202020697320656D70747B
:080A8400792020202000F4017C
:00000001FF
