:100000000C9446000C9465000C9465000C946500FB
:100010000C9465000C9465000C9465000C946500CC
:100020000C9465000C9465000C9465000C946500BC
:100030000C9465000C9465000C9465000C946500AC
:100040000C94D5000C9465000C9467000C9465002A
:100050000C9465000C9465000C9465000C9465008C
:100060000C9465000C9465000C9465000C9465007C
:100070000C9465000C9465000C9465000C9465006C
:100080000C9465000C9465000C94650011241FBE4F
:10009000CFEFD0E1DEBFCDBF11E0A0E0B1E0EAEEEE
:1000A000F3E000E00BBF02C007900D92A030B10753
:1000B000D9F711E0A0E0B1E001C01D92AB30B1076B
:1000C000E1F70E9456010C94CE010C9400001F929F
:1000D0000F920FB60F9211248F939F938FB78F7744
:1000E0008FBF8CB1909100019130E1F4109200012A
:1000F00080930101813331F4AB9A90930A011092FD
:10010000050119C0823331F4AC9A90930901109221
:10011000080111C0833331F4AD9A90930401109219
:10012000060109C0803439F480910001882319F454
:1001300081E0809300018FB780688FBF9F918F917E
:100140000F900FBE0F901F901895AC0120E030E08B
:100150000CC080919B0085FFFCCFFA01E20FF31FDA
:10016000808180939C002F5F3F4F261737078CF3C9
:100170000895DF93CF9300D000D00F92CDB7DEB7B4
:100180009FEF99838A836B834C838EEE8D83CE01A0
:10019000019665E070E00E94A5000F900F900F900F
:1001A0000F900F90CF91DF9108951F920F920FB68D
:1001B0000F920BB60F9211242F933F934F935F939F
:1001C0006F937F938F939F93AF93BF93EF93FF931F
:1001D00083E882BF80910201909103010196909380
:1001E000030180930201845F914098F11092030112
:1001F0001092020180910A0160910901409104016D
:100200000E94B90080910A01813049F48091050172
:100210008F5F80930501823010F010920A01809167
:100220000901813049F4809108018F5F80930801B2
:10023000823010F01092090180910401813049F45C
:10024000809106018F5F80930601823010F010923A
:100250000401FF91EF91BF91AF919F918F917F9199
:100260006F915F914F913F912F910F900BBE0F9027
:100270000FBE0F901F9018958FB78F778FBF0E947A
:100280007A0180E040E051EE60E070E00E94880179
:1002900081E040E051EE60E070E00E9488018FEF65
:1002A00084BB81BB8FB780688FBF08950E943C01DB
:1002B00080910A01813011F4A89A05C080910A0149
:1002C000882309F4A89880910901813011F4A99A32
:1002D00005C080910A01882309F4A998809104013E
:1002E000813011F4AA9AE4CF80910401882301F7A8
:1002F000AA98DECF87B7816087BF12BE86E083BF32
:10030000089587B7816087BF12BE86E083BF0895D6
:100310001F93182F9A01AB0184E0220F331F441F53
:10032000551F8A95D1F760E074E284EF90E00E9457
:10033000D10121503040112371F43093900029B93C
:1003400080E28BB988E18AB986E0809395001098A5
:10035000119A579A11C0113079F430939800209374
:10036000990080E280939B0088E180939A0086E068
:1003700080939D008A988B9A1F910895882319F085
:10038000813059F404C05D9BFECF6CB90895809113
:100390009B0085FFFCCF60939C000895F8940C941B
:1003A000F301A1E21A2EAA1BBB1BFD010DC0AA1F5F
:1003B000BB1FEE1FFF1FA217B307E407F50720F0CE
:1003C000A21BB30BE40BF50B661F771F881F991F49
:1003D0001A9469F760957095809590959B01AC0192
:0A03E000BD01CF010895F894FFCF8E
:00000001FF
