:100000000C9446000C9465000C9465000C946500FB
:100010000C9465000C9465000C9465000C946500CC
:100020000C9465000C9465000C9465000C946500BC
:100030000C9465000C9465000C9465000C946500AC
:100040000C9465000C9465000C9422010C946500DE
:100050000C9465000C9465000C9465000C9465008C
:100060000C9465000C9465000C9465000C9465007C
:100070000C9465000C9465000C9465000C9465006C
:100080000C9465000C9465000C94650011241FBE4F
:10009000CFEFD0E1DEBFCDBF11E0A0E0B1E0E8E7F7
:1000A000F3E000E00BBF02C007900D92A837B10744
:1000B000D9F711E0A8E7B1E001C01D92A937B10757
:1000C000E1F70E9409010C94B7010C940000109212
:1000D000900087E689B980E28BB988E98AB986E021
:1000E000809395001098119A0895482F8CE291E022
:1000F00020E931E0F9013197F1F70197D9F71BBAFF
:1001000085E0982F9A95F1F794E09BBB8A95F1F7DB
:1001100045BB83E08BBB8CE291E020E931E0F90143
:100120003197F1F70197D9F71BBA08951F938FEF15
:1001300084BB87E08ABB84EF91E020E931E0F901DC
:100140003197F1F70197D9F78CE30E94750015ED0F
:10015000812F8A95F1F78FE00E9475001A95F1F7CB
:1001600081E00E94750080E49FE10197F1F786E04D
:100170000E9475001F91089521E02BBB95E0392F57
:100180003A95F1F79BBB9A95F1F785BB2BBB8CE2B7
:1001900091E020E931E0F9013197F1F70197D9F7C2
:1001A0001BBA08950E94BC0088EC90E020E931E081
:1001B000F9013197F1F70197D9F70895CF93DF93BC
:1001C000EC0103C00E94D200219688818823D1F7D8
:1001D000DF91CF910895882319F4862F805802C0AB
:1001E000862F80540E94750008951F93142F0E943B
:1001F000EB00812F0E94D2001F9108950F931F934F
:100200008A010E94EB00C8010E94DE001F910F913D
:1002100008950E9496000E9467008FEF81BB82BB09
:1002200087BB88BB8FB780688FBF80E060E040E00D
:1002300051E00E94FE0081E060E041E151E00E9457
:10024000FE00F3CF1F920F920FB60F920BB60F92D4
:1002500011242F933F934F935F936F937F938F93CB
:100260009F93AF93BF93EF93FF938FB78F778FBF1A
:100270008CB1809378018134E9F412BAC098C19AA4
:10028000C29A80E060E042E251E00E94FE0081E01C
:1002900060E043E351E00E94FE0080E593EC20E93A
:1002A00031E0F9013197F1F70197D9F78FEF82BB70
:1002B000C09A37C08234D1F4C09AC198C29A80E003
:1002C00060E044E451E00E94FE0081E060E045E52A
:1002D00051E00E94FE0080E593EC20E931E0F90155
:1002E0003197F1F70197D9F7C19A1BC08334C9F44C
:1002F000C09AC19AC29880E060E044E451E00E9454
:10030000FE0081E060E046E651E00E94FE0080E5EC
:1003100093EC20E931E0F9013197F1F70197D9F732
:10032000C29A8FB780688FBFFF91EF91BF91AF9155
:100330009F918F917F916F915F914F913F912F91FD
:100340000F900BBE0F900FBE0F901F901895882333
:1003500019F0813059F404C05D9BFECF6CB908954B
:1003600080919B0085FFFCCF60939C000895F894DA
:080370000C94BA01F894FFCFD0
:1003780020204E4F572044524956494E47202020AE
:100388000020202020202020202020202020202085
:1003980020002020205741524E494E47203A202025
:1003A800202000202053656E736520536F756E649E
:1003B800202020002053746C6C61626C65206E6193
:1003C8006D65202000202020204E4F5720446F20AC
:1003D800202020202000202020204E4F572052652A
:0803E80020202020202000004D
:00000001FF
