:100000000C9446000C9465000C9465000C946500FB
:100010000C9465000C9465000C9465000C946500CC
:100020000C9465000C9465000C9465000C946500BC
:100030000C9465000C9465000C9465000C946500AC
:100040000C94E7020C9465000C9467000C94650016
:100050000C9465000C9465000C9465000C9465008C
:100060000C9465000C9465000C9465000C9465007C
:100070000C9465000C9465000C9465000C9465006C
:100080000C9465000C9465000C94650011241FBE4F
:10009000CFEFD0E1DEBFCDBF11E0A0E0B1E0E6E000
:1000A000F7E000E00BBF02C007900D92AE31B10740
:1000B000D9F711E0AEE1B1E001C01D92A935B10759
:1000C000E1F70E9403020C9421030C9400001F929C
:1000D0000F920FB60F920BB60F9211242F938F939E
:1000E0009F93EF93FF938FB78F778FBF9CB19093C0
:1000F000500120912001213069F59E3E09F5809143
:100100001E018630E9F41092200110921E018091A8
:100110002701809357018091280180934D018091A0
:1001200029018093490180912A01809345018091A2
:100130002B018093520180912C018093480111C0C2
:1001400080911E01E82FF0E0E95DFE4F90838F5F04
:1001500080931E019F3F29F4222319F481E08093AC
:1001600020018FB780688FBFFF91EF919F918F9192
:100170002F910F900BBE0F900FBE0F901F901895F0
:10018000482F8CE291E020E931E0F9013197F1F755
:100190000197D9F71BBA85E0982F9A95F1F794E06B
:1001A0009BBB8A95F1F745BB83E08BBB8CE291E06A
:1001B00020E931E0F9013197F1F70197D9F71BBA3E
:1001C00008951F938FEF84BB87E08ABB84EF91E093
:1001D00020E931E0F9013197F1F70197D9F78CE384
:1001E0000E94C00015ED812F8A95F1F78FE00E94E3
:1001F000C0001A95F1F781E00E94C00080E49FE101
:100200000197F1F786E00E94C0001F91089521E058
:100210002BBB95E0392F3A95F1F79BBB9A95F1F7F7
:1002200085BB2BBB8CE291E020E931E0F9013197ED
:10023000F1F70197D9F71BBA08950E94070188ECDE
:1002400090E020E931E0F9013197F1F70197D9F712
:100250000895CF93DF93EC0103C00E941D01219606
:1002600088818823D1F7DF91CF910895882319F4ED
:10027000862F805802C0862F80540E94C0000895A7
:100280001F93142F0E943601812F0E941D011F9180
:1002900008950F931F938A010E943601C8010E949E
:1002A00029011F910F910895FF920F931F93F82E2C
:1002B000162F042F842F6AE00E942403482F405DEC
:1002C0008F2D612F0E9440011F5F802F6AE00E94E6
:1002D0002403905D8F2D612F492F0E9440011F91B3
:1002E0000F91FF900895EF92FF920F931F93082FA5
:1002F000162F7A01CA0160E177E20E943003462F8F
:10030000405D802F612F0E9440011F5FC70160E1A7
:1003100077E20E94300368EE73E00E943003462FBC
:10032000405D802F612F0E9440011F5FC70168EE72
:1003300073E00E94300364E670E00E943003462FB1
:10034000405D802F612F0E9440011F5FC70164E65E
:1003500070E00E9430036AE070E00E943003462F94
:10036000405D802F612F0E9440011F5FC7016AE03E
:1003700070E00E943003482F405D802F612F0E9463
:1003800040011F910F91FF90EF90089587B7816012
:1003900087BF12BE86E083BF08959C0140E050E015
:1003A00084E0220F331F441F551F8A95D1F760E068
:1003B00074E284EF90E00E94440321503040309377
:1003C000900029B980E28BB988E18AB986E08093F0
:1003D00095001098119A579A08958FB78F778FBF0D
:1003E0000E94E10087B7816087BF12BE86E083BFAD
:1003F00080E895E20E94CD0117BA109264008FB791
:1004000080688FBF0895CF93DF930E94ED01C0E90C
:10041000D1E080915701813029F480E060E040E034
:1004200051E004C080E060E04CE051E00E944901EE
:1004300080E06CE0409148010E94540181E060E05E
:1004400040914D010E94540181E062E048E151E099
:100450000E94490181E063E0409145010E945401FE
:1004600081E065E04AE151E00E94490181E067E0F6
:10047000409149010E94540181E069E048E151E066
:100480000E94490181E06AE0409152010E945401BA
:1004900088EB9BE0FE013197F1F70197D9F7B9CFCF
:1004A0005D9BFECF8CB90895B0990CC08091580126
:1004B000813009F08BC05D9BFECF81E48CB9109236
:1004C00058010895B1990CC080914F01813009F015
:1004D0007DC05D9BFECF82E48CB910924F010895E0
:1004E000B2990CC080915401813009F06FC05D9BBE
:1004F000FECF83E48CB9109254010895B3990CC0D7
:1005000080914B01813009F061C05D9BFECF84E496
:100510008CB910924B010895B4990CC080912601BA
:10052000813009F053C05D9BFECF85E48CB91092F9
:1005300026010895B5990CC080914C01813009F0D5
:1005400045C05D9BFECF86E48CB910924C010895A6
:10055000B6990BC080914E018130C1F55D9BFECFF5
:1005600087E48CB910924E0108958091630083FD59
:100570000BC080912201813049F55D9BFECF88E45C
:100580008CB91092220108958091630084FD0BC004
:1005900080914A018130D1F45D9BFECF89E48CB912
:1005A00010924A01089581E08093580180934F0191
:1005B0008093540180934B018093260180934C01DA
:1005C00080934E018093220180934A0108951F92E7
:1005D0000F920FB60F920BB60F9211242F933F93E9
:1005E0004F935F936F937F938F939F93AF93BF933B
:1005F000EF93FF9383E882BF80915501909156015C
:10060000019690935601809355018436910530F000
:1006100010925601109255010E945402FF91EF91E1
:10062000BF91AF919F918F917F916F915F914F910A
:100630003F912F910F900BBE0F900FBE0F901F9008
:100640001895F8940C948103991B79E004C0991FC4
:10065000961708F0961B881F7A95C9F7809508951C
:10066000AA1BBB1B51E107C0AA1FBB1FA617B707D8
:1006700010F0A61BB70B881F991F5A95A9F78095F4
:100680009095BC01CD01089597FB092E05260ED04B
:1006900057FD04D014D00AD0001C38F45095409572
:1006A000309521953F4F4F4F5F4F0895F6F7909546
:1006B0008095709561957F4F8F4F9F4F0895A1E270
:1006C0001A2EAA1BBB1BFD010DC0AA1FBB1FEE1FCC
:1006D000FF1FA217B307E407F50720F0A21BB30B17
:1006E000E40BF50B661F771F881F991F1A9469F793
:1006F00060957095809590959B01AC01BD01CF01EF
:060700000895F894FFCFFC
:100706004D4F44453A204175746F20004D4F444586
:0E0716003A204D616E7520002F00202000005B
:00000001FF
