:100000000C9446000C9465000C9465000C946500FB
:100010000C9465000C9465000C9465000C946500CC
:100020000C9465000C9465000C9465000C946500BC
:100030000C9465000C9465000C9467000C946500AA
:100040000C9465000C9465000C94A0000C94650061
:100050000C9465000C9465000C9465000C9465008C
:100060000C9465000C9465000C9465000C9465007C
:100070000C9465000C9465000C9465000C9465006C
:100080000C9465000C9465000C94650011241FBE4F
:10009000CFEFD0E1DEBFCDBF11E0A0E0B1E0EAE6F6
:1000A000F7E000E00BBF02C007900D92A032B1074D
:1000B000D9F711E0A0E2B1E001C01D92A232B10770
:1000C000E1F70E9488000C946E030C9400001F92CC
:1000D0000F920FB60F9211240F900FBE0F901F902A
:1000E00018958FB78F778FBF0E94D20080E040E0D5
:1000F00051EE60E070E00E94010181E040E051EECD
:1001000060E070E00E9401018FB780688FBF0895A2
:10011000CF93DF930E947100C0E9D1E080E060914D
:1001200020010E944801809120018F5F809320016F
:1001300088E893E1FE013197F1F70197D9F7EECF07
:100140001F920F920FB60F920BB60F9211242F939E
:100150003F934F935F936F937F938F939F93AF934F
:10016000BF93EF93FF938FB78F778FBF6CB160937F
:10017000210181E00E9448018FB780688FBFFF9105
:10018000EF91BF91AF919F918F917F916F915F910F
:100190004F913F912F910F900BBE0F900FBE0F907C
:1001A0001F901895BC9A12BE8FE683BF84E681BF6C
:1001B00087B7846087BF1DBC1CBC83E08EBD0895DB
:1001C000BC9A12BE8FE683BF84E681BF089587B7CD
:1001D000846087BF1DBC1CBC83E08EBD089587B7BB
:1001E000806487BF14BC15BC0895EDE7F0E0808102
:1001F00084608083109289001092880010928A0097
:1002000008951F93182F9A01AB0184E0220F331F2A
:10021000441F551F8A95D1F760E074E284EF90E0A7
:100220000E94910321503040112371F430939000CB
:1002300029B980E28BB988E18AB986E0809395007C
:100240001098119A579A11C0113079F43093980090
:100250002093990080E280939B0088E180939A002C
:1002600086E080939D008A988B9A1F910895882339
:1002700021F0813031F080E008955F9BFECF8CB19A
:10028000089580919B0087FFFCCF80919C0008958A
:10029000882319F0813059F404C05D9BFECF6CB9FE
:1002A000089580919B0085FFFCCF60939C0008958A
:1002B0001F93CF93DF93182FEB010BC0812F0E9468
:1002C000480188818A3021F4812F6DE00E94480125
:1002D00021966881662391F7DF91CF911F91089550
:1002E0000F931F93082F162F862F64E60E94710329
:1002F000682F605D802F0E944801812F64E60E9474
:100300007103892F6AE00E947103682F605D802F5E
:100310000E944801812F6AE00E947103905D802F46
:10032000692F0E9448011F910F910895FF920F932A
:100330001F93082FF62E862F64E60E947103182F54
:10034000882329F0682F605D802F0E9448018F2D3F
:1003500064E60E947103892F6AE00E947103682F8E
:10036000882319F0605D802F04C0112321F0802FB5
:1003700060E30E9448018F2D6AE00E947103905D46
:10038000802F692F0E9448011F910F91FF900895BF
:10039000FF920F931F93F82E8B01CB0168EE73E051
:1003A0000E947D03605D8F2D0E944801C80168EEA8
:1003B00073E00E947D0364E670E00E947D03605D4F
:1003C0008F2D0E944801C80164E670E00E947D0301
:1003D0006AE070E00E947D03605D8F2D0E944801FD
:1003E000C8016AE070E00E947D03682F605D8F2D78
:1003F0000E9448011F910F91FF900895FF920F9363
:100400001F93F82E8B01CB0168EE73E00E947D03F1
:1004100064E670E00E947D03605D8F2D0E944801BC
:10042000C80164E670E00E947D036AE070E00E940B
:100430007D03605D8F2D0E944801C8016AE070E075
:100440000E947D03682F605D8F2D0E9448011F91DF
:100450000F91FF900895FF920F931F93F82E8B0139
:10046000CB0160E177E20E947D03605D8F2D0E94E9
:100470004801C80160E177E20E947D0368EE73E005
:100480000E947D03605D8F2D0E944801C80168EEC7
:1004900073E00E947D0364E670E00E947D03605D6E
:1004A0008F2D0E944801C80164E670E00E947D0320
:1004B0006AE070E00E947D03605D8F2D0E9448011C
:1004C000C8016AE070E00E947D03682F605D8F2D97
:1004D0000E9448011F910F91FF900895AF92BF9223
:1004E000DF92EF92FF920F931F93CF93DF93D82E5B
:1004F0005B01CB0160E177E20E947D037B01611526
:10050000710521F0605D8D2D0E944801C50160E1FB
:1005100077E20E947D0368EE73E00E947D038B0109
:100520006115710519F0605D8D2D05C0E114F104B0
:1005300021F08D2D60E30E944801C50168EE73E053
:100540000E947D0364E670E00E947D03EB0161156B
:10055000710529F0CB01805D682F8D2D08C0011534
:10056000110519F4E114F10421F08D2D60E30E94CE
:100570004801C50164E670E00E947D036AE070E016
:100580000E947D036115710519F0605D8D2D08C015
:10059000CD2B21F4012B11F4EF2821F08D2D60E3F8
:1005A0000E944801C5016AE070E00E947D03682F47
:1005B000605D8D2D0E944801DF91CF911F910F91B9
:1005C000FF90EF90DF90BF90AF900895FF920F9350
:1005D0001F93DF93CF93CDB7DEB761970FB6F89433
:1005E000DEBF0FBECDBFF82E962FDE011196E0E1E3
:1005F000F1E080E101900D928150E1F7892F829521
:100600008F708E010F5F1F4FF801E80FF11D8F2DC6
:100610006081998B0E94480199899F70090F111D73
:100620008F2DF80160810E94480161960FB6F89401
:10063000DEBF0FBECDBFCF91DF911F910F91FF9015
:100640000895DF92EF92FF920F931F93DF93CF9362
:10065000CDB7DEB760970FB6F894DEBF0FBECDBF43
:10066000D82E7B01DE011196E0E0F1E080E10190FF
:100670000D928150E1F7EF2DFF27EF70F0708E01A2
:100680000F5F1F4FE00FF11F8D2D60810E94480109
:10069000F70194E0F695E7959A95E1F7EF70F07021
:1006A000E00FF11F8D2D60810E9448018FE0E8224C
:1006B000FF240E0D1F1D8D2DF80160810E94480141
:1006C00060960FB6F894DEBF0FBECDBFCF91DF911D
:1006D0001F910F91FF90EF90DF900895F8940C9484
:1006E000B303991B79E004C0991F961708F0961B75
:1006F000881F7A95C9F780950895AA1BBB1B51E105
:1007000007C0AA1FBB1FA617B70710F0A61BB70B81
:10071000881F991F5A95A9F780959095BC01CD0126
:100720000895A1E21A2EAA1BBB1BFD010DC0AA1F32
:10073000BB1FEE1FFF1FA217B307E407F50720F04A
:10074000A21BB30BE40BF50B661F771F881F991FC5
:100750001A9469F760957095809590959B01AC010E
:0A076000BD01CF010895F894FFCF0A
:10076A0030313233343536373839414243444546DD
:10077A0030313233343536373839414243444546CD
:00000001FF
