:100000000C9446000C945F000C945D000C945D0011
:100010000C945D000C945D000C945D000C945D00EC
:100020000C945D000C945D000C945D000C945D00DC
:100030000C945D000C945D000C945D000C945D00CC
:100040000C945D000C945D000C945D000C945D00BC
:100050000C945D000C945D000C945D000C945D00AC
:100060000C945D000C945D000C945D000C945D009C
:100070000C945D000C945D000C945D000C945D008C
:100080000C945D000C945D000C945D0011241FBE67
:10009000CFEFD0E1DEBFCDBF12E0A0E0B1E0E6EDF2
:1000A000F0E100E00BBF02C007900D92A830B1074D
:1000B000D9F70E9451010C9469080C9400001F921A
:1000C0000F920FB60F9211248F939F938FEF85BBE2
:1000D0008FE39CE90197F1F700C000009F918F9199
:1000E0000F900FBE0F901F90189597B1982B97B94E
:1000F000369A349BFECF24B135B1C90108951F93C0
:10010000182F9A01AB0164E0220F331F441F551FC3
:100110006A95D1F760E074E284EF90E00E941008E5
:100120002150304040405040112389F4BB27A52F77
:10013000942F832F8093900029B980E28BB988E9AE
:100140008AB986E0809395001098119A15C01130F5
:1001500099F4BB27A52F942F832F80939800209389
:10016000990080E280939B0088E980939A0086E062
:1001700080939D008A988B9A1F9108958FB78F77EF
:100180008FBF80E487B987E886B9E1E6F0E0808137
:100190008D7F80838FB780688FBF81E040E855E214
:1001A00060E070E00E947F008FB780688FBF089585
:1001B000882319F0813059F404C05D9BFECF6CB9DF
:1001C000089580919B0085FFFCCF60939C0008956B
:1001D000CF92DF92EF92FF920F931F93CF93DF9313
:1001E000EC0160E177E20E94FC076C01A0E3FA2ECB
:1001F000F60E80E06F2D0E94D80008EE13E0C601D5
:10020000B8010E94FC07F0E3CF2EC60E80E06C2DF3
:100210000E94D800CE01B8010E94FC0704E610E05D
:10022000B8010E94FC07E0E3EE2EE60E80E06E2DA2
:100230000E94D800CE01B8010E94FC070AE010E03D
:10024000B8010E94FC0770E3D72ED60E80E06D2D1A
:100250000E94D800CE01B8010E94FC07082F005D63
:1002600080E0602F0E94D80081E06F2D0E94D800AE
:1002700081E06C2D0E94D80081E06E2D0E94D80094
:1002800081E06D2D0E94D80081E0602F0E94D8008F
:10029000DF91CF911F910F91FF90EF90DF90CF9062
:1002A00008950E94BE008FB780688FBF89B78160B4
:1002B00089BF89B7826089BF8AE080936A0011BADA
:1002C0008FEF84BB15BA82E00E9475008FEF91EE2C
:1002D000A4E081509040A040E1F700C0000064B16C
:1002E00075B180E090E00E949A052DEC3CEC4CE466
:1002F00053E40E946A042BE237E846E15EE30E9481
:100300003F039B01AC0166E676E68AE391E40E9436
:100310006A042DE33AE047ED5EE30E943F0320E0EC
:1003200030E040E251E40E9470030E949C01DC0135
:10033000CB010E94E800C6CFEF92FF920F931F936C
:100340007B018C0120E030E040E05FE40E94180572
:1003500087FD11C0C801B70120E030E040E05FE454
:100360000E943F030E9448059B01AC012050304091
:100370004040504806C0C801B7010E9448059B0193
:10038000AC01B901CA011F910F91FF90EF90089540
:10039000A0E0B0E0EEECF1E00C943608FC01EA01DC
:1003A0008081823008F438C1DB019C91923008F4DE
:1003B00030C1843059F4943009F02EC191811196E6
:1003C0008C911197981709F021C126C1943009F436
:1003D00020C19230B1F4823009F01EC1CA01AF01D0
:1003E00028E0DA010D90AD01DC010D92CD01215024
:1003F000C1F7DB0111968C91119791818923898333
:100400000AC1823009F405C1C280D380DB01129693
:100410006D907C9013972481358146815781149685
:10042000ED90FD900D911C911797C60186199709C3
:100430005C0197FF04C0AA24BB24A81AB90AB0E241
:10044000AB16B1040CF061C0181619066CF5370133
:1004500048010A2C04C096948794779467940A9470
:10046000D2F781E090E0A0E0B0E00A2C04C0880F51
:10047000991FAA1FBB1F0A94D2F70197A109B109BE
:100480008E219F21A023B123EE24FF248701E39432
:100490000097A105B10519F4EE24FF248701E62891
:1004A000F728082919293CC00097D1F1CA0CDB1C98
:1004B00039014A010A2C04C0969487947794679472
:1004C0000A94D2F781E090E0A0E0B0E00A2C04C0EA
:1004D000880F991FAA1FBB1F0A94D2F70197A10981
:1004E000B10982239323A423B52321E030E040E027
:1004F00050E00097A105B10519F420E030E0A90112
:1005000026293729482959290BC06C147D0424F465
:10051000EE24FF24870104C0630120E030E0A9013C
:100520008181FB019181891709F445C0882349F035
:10053000D801C701821B930BA40BB50B9C01AD0125
:1005400004C02E193F09400B510B57FD04C01982FE
:10055000DB82CA820BC081E08983DB82CA8250952C
:100560004095309521953F4F4F4F5F4F2C833D83F2
:100570004E835F830DC0880F991FAA1FBB1F8C83FA
:100580009D83AE83BF838A819B8101979B838A83EE
:100590008C819D81AE81BF819C01AD012150304095
:1005A000404050402F3FEFEF3E07EFEF4E07EFE3A5
:1005B0005E0708F30BC08983DB82CA822E0D3F1DC4
:1005C000401F511F2C833D834E835F8383E08883CC
:1005D0002C813D814E815F8157FF1DC0DA01C90129
:1005E00081709070A070B07056954795379527959B
:1005F000822B932BA42BB52B8C839D83AE83BF833F
:100600008A819B8101969B838A8305C0E0E0F1E0AB
:1006100003C0FB0101C0FE01CF01CDB7DEB7EEE0A4
:100620000C945208A0E2B0E0E8E1F3E00C943E083C
:1006300069837A838B839C832D833E834F83588782
:1006400089E0E82EF12CEC0EFD1ECE010196B701DB
:100650000E943A078E010F5E1F4FCE010596B8012A
:100660000E943A07C701B801AE01475E5F4F0E9482
:10067000C8010E946C06A096E6E00C945A08A0E21D
:10068000B0E0E5E4F3E00C943E0869837A838B8361
:100690009C832D833E834F8358878E01075F1F4FB6
:1006A000CE010196B8010E943A0791E1E92EF12CA2
:1006B000EC0EFD1ECE010596B7010E943A078A890D
:1006C00091E089278A8BC801B701AE01475E5F4F71
:1006D0000E94C8010E946C06A096E6E00C945A089D
:1006E000A0E2B0E0E6E7F3E00C94320869837A8395
:1006F0008B839C832D833E834F835887CE01019645
:10070000BE01675F7F4F0E943A07CE010596BE018A
:100710006F5E7F4F0E943A079985923078F0898901
:100720008230C0F0943019F4823041F4CBC0843070
:1007300019F4923079F4C6C0923051F481E02A85E0
:100740009A89291709F480E08A87CE010996BCC0EE
:10075000823051F481E02A859A89291709F480E0D2
:100760008A8BCE014196B0C06D847E848F84988838
:10077000ED88FE880F89188DE0E2F0E080E090E0DF
:10078000DC01AA24BB24650120E030E0A901B3010B
:100790006170707061157105D1F02E0D3F1D401F05
:1007A000511F15012601280E391E4A1E5B1E81E0CD
:1007B00090E0A0E0B0E02E153F054007510718F08B
:1007C00080E090E0DC01820D931DA41DB51DAA0CF4
:1007D000BB1CCC1CDD1C17FF09C061E0262E312C90
:1007E000412C512CA228B328C428D528319749F090
:1007F000EE0CFF1C001F111F96948794779467944A
:10080000C6CF6B897C89EB85FC856E0F7F1F6E5F81
:100810007F4F7C8F6B8F61E0EA857A89E71709F457
:1008200060E06A8F6B8D7C8D10C0FC01E170F07010
:10083000309729F056954795379527955068B69586
:10084000A795979587956F5F7F4FB7FDEECF0CC04B
:10085000880F991FAA1FBB1F57FD8160220F331FEE
:10086000441F551F615070408030E0E09E07E0E07B
:10087000AE07E0E4BE0760F36B8F7C8F6FE7E62E78
:10088000F12C012D112DE822F9220A231B2360E40B
:10089000E616F1040105110561F487FD0AC0211572
:1008A00031054105510529F0805C9F4FAF4FBF4F87
:1008B00080788D8F9E8FAF8FB8A383E0898FCE0114
:1008C000499602C080E091E00E946C06A096E2E1A9
:1008D0000C944E08A8E1B0E0E0E7F4E00C943A088C
:1008E00069837A838B839C832D833E834F835887D0
:1008F0008E01075F1F4FCE010196B8010E943A0793
:1009000081E1E82EF12CEC0EFD1ECE010596B7011B
:100910000E943A079985923008F483C08989823011
:1009200008F47BC02A853A8923272A87943011F05E
:10093000923021F4981709F06CC071C0843039F4FA
:100940001D861E861F86188A1C861B866AC08230FA
:1009500019F484E0898765C08B859C852B893C8947
:10096000821B930B9C878B872D853E854F855889ED
:10097000ED88FE880F89188D2E153F054007510719
:1009800038F4220F331F441F551F01979C878B8714
:100990006FE170E0A12CB12CC12CA0E4DA2E80E034
:1009A00090E0DC012E153F054007510740F08A29F1
:1009B0009B29AC29BD292E193F09400B510BD69418
:1009C000C794B794A794220F331F441F551F61503B
:1009D000704041F76FE7E62EF12C012D112DE82232
:1009E000F9220A231B2360E4E616F1040105110530
:1009F00061F487FD0AC0211531054105510529F033
:100A0000805C9F4FAF4FBF4F80788D879E87AF87A9
:100A1000B88B8E01075F1F4F04C0870102C000E042
:100A200011E0C8010E946C066896EAE00C94560832
:100A3000A8E1B0E0EEE1F5E00C943E0869837A832A
:100A40008B839C832D833E834F8358878E01075F62
:100A50001F4FCE010196B8010E943A0781E1E82EAE
:100A6000F12CEC0EFD1ECE010596B7010E943A074F
:100A70008985823040F08989823028F0C801B70129
:100A80000E94A30701C08FEF6896E6E00C945A0815
:100A9000ACE0B0E0EEE4F5E00C94420869837A83C0
:100AA0008B839C83CE010196BE016B5F7F4F0E94BA
:100AB0003A078D81823081F1823070F1843021F4E7
:100AC0008E81882369F10AC02F81388537FD24C0C3
:100AD0006E812F3131053CF0662311F120E030E0CA
:100AE00040E050E821C08EE190E0821B930B298505
:100AF0003A854B855C8504C0569547953795279573
:100B00008A95D2F7662381F05095409530952195CE
:100B10003F4F4F4F5F4F08C020E030E0A90104C0B5
:100B20002FEF3FEF4FEF5FE7B901CA012C96E2E0EC
:100B30000C945E08A8E0B0E0E0EAF5E00C943C0814
:100B40007B018C011A82611571058105910519F4EB
:100B500082E089835FC083E089838EE1C82ED12C37
:100B6000DC82CB82ED82FE820F831887C801B70139
:100B70000E941206FC013197F7FF3AC0AA27BB2753
:100B8000AE1BBF0B21E030E040E050E00A2E04C075
:100B9000220F331F441F551F0A94D2F721503040B3
:100BA000404050402E213F214023512361E070E01E
:100BB00080E090E0211531054105510519F460E010
:100BC00070E0CB0104C016950795F794E794AA95B9
:100BD000D2F7E62AF72A082B192BED82FE820F8323
:100BE00018878EE190E08E1B9F0B9C838B8312C035
:100BF000309781F00E2E04C0EE0CFF1C001F111F59
:100C00000A94D2F7ED82FE820F831887CE1ADF0A8C
:100C1000DC82CB82CE0101960E946C062896E8E029
:100C20000C945808AF92BF92CF92DF92EF92FF924E
:100C30000F931F937B018C0180E0E81680E0F8069B
:100C400081E0080780E0180758F4EFEFEE16F10492
:100C50000105110509F090F480E090E0DC0117C077
:100C6000F0E0EF16F0E0FF06F0E00F07F1E01F07FD
:100C700050F480E190E0A0E0B0E009C088E090E0AE
:100C8000A0E0B0E004C088E190E0A0E0B0E020E2A5
:100C900030E040E050E0281B390B4A0B5B0B57015A
:100CA000680104C0D694C794B794A7948A95D2F7E4
:100CB000D601C501885F9E4FFC018081281B310948
:100CC00041095109C9011F910F91FF90EF90DF90E9
:100CD000CF90BF90AF900895EF92FF920F931F9324
:100CE000CF93DF93FC012481358146815781618157
:100CF0008081823020F44061EFEFF0E0A3C08430C7
:100D000009F49BC0823009F492C0211531054105D8
:100D1000510509F48FC00280F381E02D8FEFE23896
:100D2000F8070CF05AC0C2E8DFEFCE1BDF0BCA3168
:100D3000D1056CF579018A010C2E04C01695079532
:100D4000F794E7940A94D2F781E090E0A0E0B0E055
:100D50000C2E04C0880F991FAA1FBB1F0A94D2F73C
:100D60000197A109B10982239323A423B52321E08C
:100D700030E040E050E00097A105B10519F420E013
:100D800030E0A9012E293F29402B512B03C020E040
:100D900030E0A901DA01C9018F779070A070B070BE
:100DA00080349105A105B10539F427FF09C0205C05
:100DB0003F4F4F4F5F4F04C0215C3F4F4F4F5F4F3E
:100DC000E1E0F0E0203080E0380780E0480780E490
:100DD000580728F5E0E0F0E022C0E038F1056CF5B6
:100DE000E158FF4FDA01C9018F779070A070B070A1
:100DF00080349105A105B10539F427FF09C0205CB5
:100E00003F4F4F4F5F4F04C0215C3F4F4F4F5F4FED
:100E100057FF05C05695479537952795319687E03A
:100E200056954795379527958A95D1F70BC0E0E001
:100E3000F0E005C0E0E0F0E005C0EFEFF0E020E01A
:100E400030E0A9018E2F879588278795942F9F776B
:100E5000679566276795E695E22EA92FA82BFE2FAA
:100E6000F62B622F732F8A2F9F2FCDB7DEB7E6E0C8
:100E70000C945A08DC01FB012C9111963C911197BE
:100E800012968C911297482F4F7750E0982F991F08
:100E90009927991F13966C911397862F880F892B8A
:100EA00090E0661F6627661F6183009739F521155C
:100EB00031054105510511F482E029C082E89FEF18
:100EC0009383828367E0220F331F441F551F6A9567
:100ED000D1F783E0808309C0220F331F441F551FC1
:100EE00082819381019793838283203080E0380749
:100EF00080E0480780E4580778F320C08F3F9105D1
:100F000079F4211531054105510519F484E08083F8
:100F1000089544FF03C081E0808310C010820EC09A
:100F20008F5790409383828383E0808387E0220FF2
:100F3000331F441F551F8A95D1F75064248335838E
:100F4000468357830895FC01DB019081923008F4B9
:100F500049C08C91823008F445C0943051F46181CD
:100F60008430B1F511962C91119730E0261B310990
:100F700041C0843021F0923041F48230B1F11196B9
:100F80008C9111978823A1F12DC06181823001F1EC
:100F900011968C9111976817D9F42281338112969A
:100FA0008D919C9113978217930794F02817390716
:100FB000BCF0248135814681578114968D919D9195
:100FC0000D90BC91A02D82179307A407B50718F4C4
:100FD000662341F00DC0281739074A075B0728F43C
:100FE000662331F021E030E005C020E030E002C0AF
:100FF0002FEF3FEFC9010895AA1BBB1B51E107C0AA
:10100000AA1FBB1FA617B70710F0A61BB70B881F98
:10101000991F5A95A9F780959095BC01CD01089527
:10102000A1E21A2EAA1BBB1BFD010DC0AA1FBB1FEC
:10103000EE1FFF1FA217B307E407F50720F0A21B5E
:10104000B30BE40BF50B661F771F881F991F1A94CB
:1010500069F760957095809590959B01AC01BD01F5
:10106000CF0108952F923F924F925F926F927F929D
:101070008F929F92AF92BF92CF92DF92EF92FF92A8
:101080000F931F93CF93DF93CDB7DEB7CA1BDB0B54
:101090000FB6F894DEBF0FBECDBF09942A883988F9
:1010A00048885F846E847D848C849B84AA84B98400
:1010B000C884DF80EE80FD800C811B81AA81B9810C
:1010C000CE0FD11D0FB6F894DEBF0FBECDBFED0120
:0610D0000895F894FFCF23
:1010D60000000000000000000001020203030303F9
:1010E60004040404040404040505050505050505B2
:1010F6000505050505050505060606060606060692
:101106000606060606060606060606060606060679
:101116000606060606060606070707070707070761
:101126000707070707070707070707070707070749
:101136000707070707070707070707070707070739
:101146000707070707070707070707070707070729
:101156000707070707070707080808080808080811
:1011660008080808080808080808080808080808F9
:1011760008080808080808080808080808080808E9
:1011860008080808080808080808080808080808D9
:1011960008080808080808080808080808080808C9
:1011A60008080808080808080808080808080808B9
:1011B60008080808080808080808080808080808A9
:1011C6000808080808080808080808080808080899
:0811D6000808080808080808D1
:00000001FF
