:1000000014C023C022C021C020C01FC01EC01DC0FC
:100010001CC01CC01AC019C018C017C016C015C01B
:1000200014C013C012C011C010C011241FBECFE5F0
:10003000D2E0DEBFCDBF10E0A0E6B0E001C01D926F
:10004000A736B107E1F74AD06BC0DACF1F920F9203
:100050000FB60F9211248F9387E382BF8F910F9079
:100060000FBE0F901F9018958091610090916200D3
:100070008133910529F48BEE90E0A0E0B0E007C059
:100080008233910569F48BE990E0A0E0B0E08093C1
:10009000630090936400A0936500B09366000FC066
:1000A000C39729F48BE490E0A0E0B0E0F0CF109289
:1000B00063001092640010926500109266008091B7
:1000C00063008CBF5F9BFECF8CB180936100109268
:1000D000620008955D9BFECF8CB908958FEF87BBBA
:1000E0008BEF81BB82E088BB12BA8DE783BF809122
:1000F00063008CBF81E089BF85E085BF90E89BBF2E
:100100001BB888E18AB986E080BD10BC87E689B952
:100110009FBFAADF809161005D9BFECF8CB9F9CFB4
:08012000F89400C0F894FFCF31
:00000001FF
