:100000000C9446000C9465000C9465000C946500FB
:100010000C9465000C9465000C9465000C946500CC
:100020000C9465000C9465000C9465000C946500BC
:100030000C9465000C9465000C9465000C946500AC
:100040000C9465000C9465000C9429010C946500D7
:100050000C9465000C9465000C9465000C9465008C
:100060000C9465000C9465000C9465000C9465007C
:100070000C9465000C9465000C9465000C9465006C
:100080000C9465000C9465000C94650011241FBE4F
:10009000CFEFD0E1DEBFCDBF12E0A0E0B1E0E2E5FE
:1000A000F1E100E00BBF02C007900D92AC30B10748
:1000B000D9F712E0ACE0B2E001C01D92A231B10765
:1000C000E1F70E94D3000C94A7080C940000109252
:1000D000610080E487B916B8309A319A329A379A1B
:1000E000089597B1982B97B9369A349BFECF24B1D7
:1000F00035B1C901089597B1982B97B9369A349BB9
:10010000FECF24B135B1C90108951F93182F9A016C
:10011000AB0184E0220F331F441F551F8A95D1F78E
:1001200060E074E284EF90E00E944E08215030407D
:10013000112371F43093900029B980E28BB988E1E2
:100140008AB986E0809395001098119A579A16C044
:100150001130B9F4309398002093990080E2809395
:100160009B0088E180939A0086E080939D008A98A6
:100170008B9A80919A00806880939A008FB78068EC
:100180008FBF1F910895882319F0813059F404C05E
:100190005D9BFECF6CB9089580919B0085FFFCCFDD
:1001A00060939C0008950E94670080E040E855E25B
:1001B00060E070E00E9485008FEF99E6A8E1815031
:1001C0009040A040E1F700C0000080910C02813017
:1001D00099F710920C0280E00E94710064B175B131
:1001E00080E090E00E94D8052DEC3CEC4CE453E418
:1001F0000E94A8042BE237E846E15EE30E947D03FB
:100200009B01AC0166E676E68AE391E40E94A804CD
:100210002DE33AE047ED5EE30E947D0320E030E00D
:1002200040E251E40E94AE0320E030E040E850E4B8
:100230000E947D030E94DA017093100260930F0206
:100240006134710540F680E0609100010E94C300B6
:10025000B3CF1F920F920FB60F920BB60F921124CD
:100260002F933F934F935F936F937F938F939F93BE
:10027000AF93BF93EF93FF938CB1809311028130C2
:1002800019F08230E1F503C080930C0238C080E0A1
:100290000E94710064B175B180E090E00E94D805C1
:1002A0002DEC3CEC4CE453E40E94A8042BE237E82C
:1002B00046E15EE30E947D039B01AC0166E676E6C3
:1002C0008AE391E40E94A8042DE33AE047ED5EE35F
:1002D0000E947D0320E030E040E251E40E94AE0342
:1002E00020E030E040E850E40E947D030E94DA0103
:1002F00060930F027093100280E00E94C300FF9190
:10030000EF91BF91AF919F918F917F916F915F918D
:100310004F913F912F910F900BBE0F900FBE0F90FA
:100320001F901895CF92DF92FF920F931F93CF9358
:10033000DF93F82EEB01CB0160E177E20E943A08EF
:100340006C01605D8F2D0E94C30008EE13E0C601B2
:10035000B8010E943A08605D8F2D0E94C300CE0153
:10036000B8010E943A0804E610E0B8010E943A0879
:10037000605D8F2D0E94C300CE01B8010E943A0833
:100380000AE010E0B8010E943A08605D8F2D0E94DB
:10039000C300CE01B8010E943A08682F605D8F2D1E
:1003A0000E94C300DF91CF911F910F91FF90DF90CA
:1003B000CF900895EF92FF920F931F937B018C01D2
:1003C00020E030E040E05FE40E94560587FD11C068
:1003D000C801B70120E030E040E05FE40E947D0307
:1003E0000E9486059B01AC0120503040404050489F
:1003F00006C0C801B7010E9486059B01AC01B90186
:10040000CA011F910F91FF90EF900895A0E0B0E016
:10041000ECE0F2E00C947408FC01EA018081823087
:1004200008F438C1DB019C91923008F430C184306B
:1004300059F4943009F02EC1918111968C91119745
:10044000981709F021C126C1943009F420C19230D7
:10045000B1F4823009F01EC1CA01AF0128E0DA010F
:100460000D90AD01DC010D92CD012150C1F7DB01F2
:1004700011968C9111979181892389830AC18230C9
:1004800009F405C1C280D380DB0112966D907C9087
:10049000139724813581468157811496ED90FD9004
:1004A0000D911C911797C601861997095C0197FF5A
:1004B00004C0AA24BB24A81AB90AB0E2AB16B1043E
:1004C0000CF061C0181619066CF5370148010A2CAA
:1004D00004C096948794779467940A94D2F781E045
:1004E00090E0A0E0B0E00A2C04C0880F991FAA1F7A
:1004F000BB1F0A94D2F70197A109B1098E219F2150
:10050000A023B123EE24FF248701E3940097A105E3
:10051000B10519F4EE24FF248701E628F7280829FD
:1005200019293CC00097D1F1CA0CDB1C39014A01E2
:100530000A2C04C096948794779467940A94D2F70F
:1005400081E090E0A0E0B0E00A2C04C0880F991F81
:10055000AA1FBB1F0A94D2F70197A109B1098223F0
:100560009323A423B52321E030E040E050E000973E
:10057000A105B10519F420E030E0A90126293729A9
:10058000482959290BC06C147D0424F4EE24FF245F
:10059000870104C0630120E030E0A9018181FB01F3
:1005A0009181891709F445C0882349F0D801C70112
:1005B000821B930BA40BB50B9C01AD0104C02E193B
:1005C0003F09400B510B57FD04C01982DB82CA82E0
:1005D0000BC081E08983DB82CA82509540953095BB
:1005E00021953F4F4F4F5F4F2C833D834E835F8359
:1005F0000DC0880F991FAA1FBB1F8C839D83AE83DC
:10060000BF838A819B8101979B838A838C819D8193
:10061000AE81BF819C01AD0121503040404050402F
:100620002F3FEFEF3E07EFEF4E07EFE35E0708F3D4
:100630000BC08983DB82CA822E0D3F1D401F511FD4
:100640002C833D834E835F8383E088832C813D81AF
:100650004E815F8157FF1DC0DA01C9018170907022
:10066000A070B0705695479537952795822B932BA0
:10067000A42BB52B8C839D83AE83BF838A819B8102
:1006800001969B838A8305C0E3E0F1E003C0FB0190
:1006900001C0FE01CF01CDB7DEB7EEE00C949008AB
:1006A000A0E2B0E0E6E5F3E00C947C0869837A838D
:1006B0008B839C832D833E834F83588789E0E82E6C
:1006C000F12CEC0EFD1ECE010196B7010E947807B9
:1006D0008E010F5E1F4FCE010596B8010E9478076C
:1006E000C701B801AE01475E5F4F0E9406020E943B
:1006F000AA06A096E6E00C949808A0E2B0E0E3E831
:10070000F3E00C947C0869837A838B839C832D832C
:100710003E834F8358878E01075F1F4FCE0101969E
:10072000B8010E94780791E1E92EF12CEC0EFD1E34
:10073000CE010596B7010E9478078A8991E0892742
:100740008A8BC801B701AE01475E5F4F0E94060267
:100750000E94AA06A096E6E00C949808A0E2B0E0F9
:10076000E4EBF3E00C94700869837A838B839C83B9
:100770002D833E834F835887CE010196BE01675F6C
:100780007F4F0E947807CE010596BE016F5E7F4FB6
:100790000E9478079985923078F089898230C0F07C
:1007A000943019F4823041F4CBC0843019F4923083
:1007B00079F4C6C0923051F481E02A859A892917CC
:1007C00009F480E08A87CE010996BCC0823051F4DA
:1007D00081E02A859A89291709F480E08A8BCE0165
:1007E0004196B0C06D847E848F849888ED88FE88A1
:1007F0000F89188DE0E2F0E080E090E0DC01AA24AF
:10080000BB24650120E030E0A901B3016170707084
:1008100061157105D1F02E0D3F1D401F511F1501AF
:100820002601280E391E4A1E5B1E81E090E0A0E0E2
:10083000B0E02E153F054007510718F080E090E02A
:10084000DC01820D931DA41DB51DAA0CBB1CCC1C84
:10085000DD1C17FF09C061E0262E312C412C512CE4
:10086000A228B328C428D528319749F0EE0CFF1CE4
:10087000001F111F9694879477946794C6CF6B8955
:100880007C89EB85FC856E0F7F1F6E5F7F4F7C8FB1
:100890006B8F61E0EA857A89E71709F460E06A8F77
:1008A0006B8D7C8D10C0FC01E170F070309729F0E9
:1008B00056954795379527955068B695A79597957E
:1008C00087956F5F7F4FB7FDEECF0CC0880F991FE4
:1008D000AA1FBB1F57FD8160220F331F441F551FE6
:1008E000615070408030E0E09E07E0E0AE07E0E459
:1008F000BE0760F36B8F7C8F6FE7E62EF12C012D26
:10090000112DE822F9220A231B2360E4E616F104E4
:100910000105110561F487FD0AC021153105410566
:10092000510529F0805C9F4FAF4FBF4F80788D8F6E
:100930009E8FAF8FB8A383E0898FCE01499602C006
:1009400083E091E00E94AA06A096E2E10C948C0854
:10095000A8E1B0E0EEEAF4E00C94780869837A83C9
:100960008B839C832D833E834F8358878E01075F43
:100970001F4FCE010196B8010E94780781E1E82E51
:10098000F12CEC0EFD1ECE010596B7010E947807F2
:100990009985923008F483C08989823008F47BC03D
:1009A0002A853A8923272A87943011F0923021F43E
:1009B000981709F06CC071C0843039F41D861E860A
:1009C0001F86188A1C861B866AC0823019F484E050
:1009D000898765C08B859C852B893C89821B930BFD
:1009E0009C878B872D853E854F855889ED88FE88AD
:1009F0000F89188D2E153F054007510738F4220F37
:100A0000331F441F551F01979C878B876FE170E050
:100A1000A12CB12CC12CA0E4DA2E80E090E0DC0106
:100A20002E153F054007510740F08A299B29AC2924
:100A3000BD292E193F09400B510BD694C794B7948A
:100A4000A794220F331F441F551F6150704041F778
:100A50006FE7E62EF12C012D112DE822F9220A2351
:100A60001B2360E4E616F1040105110561F487FD1E
:100A70000AC0211531054105510529F0805C9F4FC1
:100A8000AF4FBF4F80788D879E87AF87B88B8E0121
:100A9000075F1F4F04C0870102C003E011E0C801D7
:100AA0000E94AA066896EAE00C949408A8E1B0E0D7
:100AB000ECE5F5E00C947C0869837A838B839C8356
:100AC0002D833E834F8358878E01075F1F4FCE01D2
:100AD0000196B8010E94780781E1E82EF12CEC0E16
:100AE000FD1ECE010596B7010E94780789858230E8
:100AF00040F08989823028F0C801B7010E94E107DF
:100B000001C08FEF6896E6E00C949808ACE0B0E086
:100B1000ECE8F5E00C94800869837A838B839C83EE
:100B2000CE010196BE016B5F7F4F0E9478078D81D9
:100B3000823081F1823070F1843021F48E818823FB
:100B400069F10AC02F81388537FD24C06E812F31AD
:100B500031053CF0662311F120E030E040E050E840
:100B600021C08EE190E0821B930B29853A854B854D
:100B70005C8504C056954795379527958A95D2F799
:100B8000662381F050954095309521953F4F4F4F0A
:100B90005F4F08C020E030E0A90104C02FEF3FEF15
:100BA0004FEF5FE7B901CA012C96E2E00C949C0874
:100BB000A8E0B0E0EEEDF5E00C947A087B018C0142
:100BC0001A82611571058105910519F482E0898306
:100BD0005FC083E089838EE1C82ED12CDC82CB827A
:100BE000ED82FE820F831887C801B7010E9450066C
:100BF000FC013197F7FF3AC0AA27BB27AE1BBF0BFA
:100C000021E030E040E050E00A2E04C0220F331F04
:100C1000441F551F0A94D2F72150304040405040A5
:100C20002E213F214023512361E070E080E090E0DD
:100C3000211531054105510519F460E070E0CB0143
:100C400004C016950795F794E794AA95D2F7E62A7B
:100C5000F72A082B192BED82FE820F8318878EE16D
:100C600090E08E1B9F0B9C838B8312C0309781F08A
:100C70000E2E04C0EE0CFF1C001F111F0A94D2F7A9
:100C8000ED82FE820F831887CE1ADF0ADC82CB82C8
:100C9000CE0101960E94AA062896E8E00C949608D8
:100CA000AF92BF92CF92DF92EF92FF920F931F937A
:100CB0007B018C0180E0E81680E0F80681E00807FF
:100CC00080E0180758F4EFEFEE16F1040105110566
:100CD00009F090F480E090E0DC0117C0F0E0EF163E
:100CE000F0E0FF06F0E00F07F1E01F0750F480E1AD
:100CF00090E0A0E0B0E009C088E090E0A0E0B0E0C3
:100D000004C088E190E0A0E0B0E020E230E040E004
:100D100050E0281B390B4A0B5B0B5701680104C0DC
:100D2000D694C794B794A7948A95D2F7D601C501F3
:100D3000855F9E4FFC018081281B310941095109C3
:100D4000C9011F910F91FF90EF90DF90CF90BF905E
:100D5000AF900895EF92FF920F931F93CF93DF937D
:100D6000FC012481358146815781618180818230F7
:100D700020F44061EFEFF0E0A3C0843009F49BC0A1
:100D8000823009F492C0211531054105510509F45D
:100D90008FC00280F381E02D8FEFE238F8070CF06E
:100DA0005AC0C2E8DFEFCE1BDF0BCA31D1056CF5AC
:100DB00079018A010C2E04C016950795F794E794E3
:100DC0000A94D2F781E090E0A0E0B0E00C2E04C0DD
:100DD000880F991FAA1FBB1F0A94D2F70197A10978
:100DE000B10982239323A423B52321E030E040E01E
:100DF00050E00097A105B10519F420E030E0A90109
:100E00002E293F29402B512B03C020E030E0A901BF
:100E1000DA01C9018F779070A070B07080349105AD
:100E2000A105B10539F427FF09C0205C3F4F4F4FA2
:100E30005F4F04C0215C3F4F4F4F5F4FE1E0F0E058
:100E4000203080E0380780E0480780E4580728F524
:100E5000E0E0F0E022C0E038F1056CF5E158FF4F2A
:100E6000DA01C9018F779070A070B070803491055D
:100E7000A105B10539F427FF09C0205C3F4F4F4F52
:100E80005F4F04C0215C3F4F4F4F5F4F57FF05C07E
:100E90005695479537952795319687E0569547950E
:100EA000379527958A95D1F70BC0E0E0F0E005C0B3
:100EB000E0E0F0E005C0EFEFF0E020E030E0A90175
:100EC0008E2F879588278795942F9F77679566271C
:100ED0006795E695E22EA92FA82BFE2FF62B622F01
:100EE000732F8A2F9F2FCDB7DEB7E6E00C949808BA
:100EF000DC01FB012C9111963C91119712968C917B
:100F00001297482F4F7750E0982F991F9927991FD4
:100F100013966C911397862F880F892B90E0661F8C
:100F20006627661F6183009739F521153105410554
:100F3000510511F482E029C082E89FEF93838283F8
:100F400067E0220F331F441F551F6A95D1F783E0D6
:100F5000808309C0220F331F441F551F8281938154
:100F6000019793838283203080E0380780E0480730
:100F700080E4580778F320C08F3F910579F421155C
:100F800031054105510519F484E08083089544FF3B
:100F900003C081E0808310C010820EC08F57904044
:100FA0009383828383E0808387E0220F331F441F73
:100FB000551F8A95D1F75064248335834683578320
:100FC0000895FC01DB019081923008F449C08C91B6
:100FD000823008F445C0943051F461818430B1F519
:100FE00011962C91119730E0261B310941C08430B5
:100FF00021F0923041F48230B1F111968C91119729
:101000008823A1F12DC06181823001F111968C916C
:1010100011976817D9F42281338112968D919C9192
:1010200013978217930794F028173907BCF024818F
:1010300035814681578114968D919D910D90BC917B
:10104000A02D82179307A407B50718F4662341F073
:101050000DC0281739074A075B0728F4662331F0CB
:1010600021E030E005C020E030E002C02FEF3FEF8C
:10107000C9010895AA1BBB1B51E107C0AA1FBB1FD2
:10108000A617B70710F0A61BB70B881F991F5A9514
:10109000A9F780959095BC01CD010895A1E21A2E83
:1010A000AA1BBB1BFD010DC0AA1FBB1FEE1FFF1F0C
:1010B000A217B307E407F50720F0A21BB30BE40B5C
:1010C000F50B661F771F881F991F1A9469F76095A3
:1010D0007095809590959B01AC01BD01CF0108955D
:1010E0002F923F924F925F926F927F928F929F9238
:1010F000AF92BF92CF92DF92EF92FF920F931F9326
:10110000CF93DF93CDB7DEB7CA1BDB0B0FB6F894D6
:10111000DEBF0FBECDBF09942A88398848885F8416
:101120006E847D848C849B84AA84B984C884DF8087
:10113000EE80FD800C811B81AA81B981CE0FD11D6B
:101140000FB6F894DEBF0FBECDBFED010895F89441
:02115000FFCFCF
:10115200010203000000000000000000010202037F
:10116200030303040404040404040405050505053B
:101172000505050505050505050505060606060618
:1011820006060606060606060606060606060606FD
:1011920006060606060606060606060707070707E8
:1011A20007070707070707070707070707070707CD
:1011B20007070707070707070707070707070707BD
:1011C20007070707070707070707070707070707AD
:1011D2000707070707070707070707080808080898
:1011E200080808080808080808080808080808087D
:1011F200080808080808080808080808080808086D
:10120200080808080808080808080808080808085C
:10121200080808080808080808080808080808084C
:10122200080808080808080808080808080808083C
:10123200080808080808080808080808080808082C
:10124200080808080808080808080808080808081C
:0C12520008080808080808080808080038
:00000001FF
