:100000000C9446000C9450000C9450000C9450003A
:100010000C9450000C9450000C9450000C94500020
:100020000C9450000C9450000C9450000C94500010
:100030000C9450000C9450000C9450000C94500000
:100040000C943B010C9450000C9450000C94500004
:100050000C9450000C9450000C9450000C945000E0
:100060000C9450000C9450000C9450000C945000D0
:100070000C9450000C9450000C9450000C945000C0
:100080000C9450000C9450000C94500011241FBE8E
:10009000CFEFD0E1DEBFCDBF0E9419010C94EA0181
:1000A0000C940000D19AD9988AE08A95F1F700C0A3
:1000B0008FB780688FBF87B7816087BF0895A82FEB
:1000C00020E030E0A9010DC0203482E438078FE041
:1000D000480780E0580709F440C02F5F3F4F4F4F5B
:1000E0005F4F89B38A238A1779F30CC02034E2E486
:1000F0003E07EFE04E07E0E05E0779F12F5F3F4FEC
:100100004F4F5F4F89B38A238A1781F7CA01B9011C
:100110000CC02034E2E43E07EFE04E07E0E05E076B
:10012000E1F02F5F3F4F4F4F5F4FF901E61BF70B99
:10013000B9B3BA23BA1769F385E190E0E89F90015B
:10014000E99F300DF89F300D112484E036952795F6
:100150008A95E1F72F5F3F4F02C020E030E0C901F0
:1001600008951F93182F9A01AB0174E0220F331FDB
:10017000441F551F7A95D1F760E074E284EF90E058
:100180000E94C8012150304040405040112389F462
:10019000BB27A52F942F832F8093900029B980E24D
:1001A0008BB988E98AB986E0809395001098119AF6
:1001B00015C0113099F4BB27A52F942F832F80935E
:1001C00098002093990080E280939B0088E98093B7
:1001D0009A0086E080939D008A988B9A1F910895DB
:1001E0008FB78F778FBF81E040E051EE60E070E025
:1001F0000E94B10080E040E051EE60E070E00E94BB
:10020000B100D19AD99887B7816087BF81E083BF59
:100210000895882319F0813059F404C05D9BFECF06
:100220006CB9089580919B0085FFFCCF60939C0082
:1002300008951F930E94F0008FB780688FBF10EB66
:100240008FEF93EDA0E381509040A040E1F700C014
:100250000000D8989AE09A95F1F700C08FB78068AF
:100260008FBF87B7816087BFD89A12BF81E061E0F6
:100270000E940901E5CF1F920F920FB60F920BB6A5
:100280000F9211242F933F934F935F936F937F931C
:100290008F939F93AF93BF93EF93FF938FB78F7716
:1002A0008FBF87B78E7F87BF81E062E00E94090120
:1002B000FF91EF91BF91AF919F918F917F916F913E
:1002C0005F914F913F912F910F900BBE0F900FBEFA
:1002D0000F901F901895882319F0813061F404C0A5
:1002E0005F9BFECF8CB1089580919B0087FFFCCF70
:1002F00080919C00089580E00895EF92FF920F9303
:100300001F93CF93DF93EC0168EE73E00E94B4017A
:100310007C01605D80E00E94090104E610E0C701F5
:10032000B8010E94B401605D80E00E940901CE0125
:10033000B8010E94B4010AE010E0B8010E94B401C3
:10034000605D80E00E940901CE01B8010E94B40105
:10035000682F605D80E00E940901DF91CF911F91BD
:100360000F91FF90EF900895AA1BBB1B51E107C0AE
:10037000AA1FBB1FA617B70710F0A61BB70B881F35
:10038000991F5A95A9F780959095BC01CD010895C4
:10039000A1E21A2EAA1BBB1BFD010DC0AA1FBB1F89
:1003A000EE1FFF1FA217B307E407F50720F0A21BFB
:1003B000B30BE40BF50B661F771F881F991F1A9468
:1003C00069F760957095809590959B01AC01BD0192
:0803D000CF010895F894FFCF5E
:00000001FF
