:100000000C9446000C9465000C9465000C946500FB
:100010000C9465000C9465000C9465000C946500CC
:100020000C9465000C9465000C9465000C946500BC
:100030000C9465000C9465000C9465000C946500AC
:100040000C9465000C9465000C9465000C9465009C
:100050000C9465000C9465000C9465000C9465008C
:100060000C9465000C9465000C9465000C9465007C
:100070000C9465000C9465000C9465000C9465006C
:100080000C9465000C9465000C94650011241FBE4F
:10009000CFEFD0E1DEBFCDBF11E0A0E0B1E0EAEAF2
:1000A000FAE000E00BBF02C007900D92A630B10746
:1000B000D9F712E0A6E0B1E001C01D92AB39B1075B
:1000C000E1F70E9499020C9451030C940000681708
:1000D00079072CF49C01261B370BB90107C0861742
:1000E00097071CF4681B790B01C00895CB01089594
:1000F0001F93182F9A01AB0184E0220F331F441F76
:10010000551F8A95D1F760E074E284EF90E00E9479
:10011000310521503040112369F43093900029B902
:1001200080E28BB988E98AB986E0809395001098BF
:10013000119A11C0113079F43093980020939900EE
:1001400080E280939B0088E980939A0086E0809308
:100150009D008A988B9A1F910895882319F0813009
:1001600059F404C05D9BFECF6CB9089580919B004B
:1001700085FFFCCF60939C000895FF920F931F931F
:10018000F82E8B01CB0168EE73E00E940A05605DDA
:100190008F2D0E94AD00C80168EE73E00E940A0531
:1001A00064E670E00E940A05605D8F2D0E94AD003C
:1001B000C80164E670E00E940A056AE070E00E94EF
:1001C0000A05605D8F2D0E94AD00C8016AE070E0F5
:1001D0000E940A05682F605D8F2D0E94AD001F915F
:1001E0000F91FF900895FF920F931F93CF93DF938A
:1001F0009FEF9093130290931402809315024E5F29
:1002000040931602425060931702E0E1F1E0A8E14A
:10021000B2E0242F30E02E0F3F1F02C081918D935A
:10022000E217F307D9F796E0F92EF40E52E040E01A
:100230002F2D30E02150304003C08081480F5F5F98
:10024000852F90E0FC01ED5EFD4F82179307ACF324
:10025000409540831B9A03E112E0CF2DD0E0C00F00
:10026000D11F07C05E9A80E0F80161918F010E9462
:10027000AD000C171D07B1F75E9BFECF1B988F2DAD
:10028000DF91CF911F910F91FF9008950F939EE101
:100290009093100140931101609312010093130198
:1002A0002093140163E045E00E94F30080939101E4
:1002B0000F910895CF92DF92EF92FF920F931F93C9
:1002C000CF93DF93EC016A017B01CB01BA0120E0FF
:1002D00030E048EC52E40E94540388235CF40F2E73
:1002E000F0E0CF2EF0E0DF2EF8ECEF2EF2E4FF2E60
:1002F000F02D14C0C701B60120E030E048E453E41B
:100300000E94A304181654F40F2EF0E0CF2EF0E054
:10031000DF2EF8E4EF2EF3E4FF2EF02DC701B60137
:1003200020E030EC4FE754E40E94A70420E030E0E6
:1003300046E953E40E9458030E94C0038B019C01CC
:10034000CB0160E071E00E941E05E62FC80160E06D
:1003500071E00E941E05482F8C2F6E2F20E004E4D0
:100360000E944601C230D10549F4C701B6010E947E
:10037000C50370930301609302010AC0219741F401
:10038000C701B6010E94C503709305016093040183
:10039000DF91CF911F910F91FF90EF90DF90CF9061
:1003A00008951092610017B816B8309A319A329AAF
:1003B000379A81E087B9089580E040E452E46FE025
:1003C00070E00E94780081E040E051EE60E070E073
:1003D0000E9478000E94D101139AD09AD89A089569
:1003E00087B9369A3699FECF24B130E045B1942FC3
:1003F00080E0282B392BC90108957F928F929F921C
:10040000AF92BF92CF92DF92EF92FF920F931F9322
:10041000DF93CF93CDB7DEB7782EE62E8DB69EB69E
:10042000C62EDD24C601880F991F2DB73EB7281BA5
:10043000390B0FB6F8943EBF0FBE2DBFADB6BEB69A
:100440000894A11CB11C00E010E0FF240EC0872D11
:100450000E94F001EF2DF0E0EE0FFF1FEA0DFB1DF3
:1004600091838083080F191FF394FE1480F3C80151
:10047000B6010E940A05CB010FB6F8949EBE0FBECE
:100480008DBECF91DF911F910F91FF90EF90DF9084
:10049000CF90BF90AF909F908F907F90089580E015
:1004A00062E30E94FD0190939A028093990282E098
:1004B00062E30E94FD01909396028093950283E08F
:1004C00062E30E94FD01909394028093930281E085
:1004D00062E30E94FD0190939802809397028091BD
:1004E000990290919A02883C9105E8F480919502D6
:1004F00090919602883C9105B0F48091930290917E
:100500009402883C910578F480919702909198022A
:10051000883C910540F4D89881E090E090930B01DD
:1005200080930A010895D89A10920B0110920A0143
:1005300008950F93CF93DF930E94DC0180E197E24F
:1005400020E931E0F9013197F1F70197D9F781E01E
:1005500062E040E021E004E40E94460182E062E0C3
:1005600040E321E00E94460180E395E720E931E085
:10057000F9013197F1F70197D9F7C0E9D1E00E946D
:100580004F0280E197E2FE013197F1F70197D9F729
:1005900080910A0190910B01892B71F081E062E05A
:1005A00040E020E004E40E94460182E062E040E393
:1005B00020E00E944601E3CF8091990290919A0237
:1005C00020919502309196024091000150910101D5
:1005D000821B930B9C01249FC001259F900D349F8B
:1005E000900D112463E070E00E941E0570930D01D0
:1005F00060930C0180919302909194022091970254
:10060000309198024091000150910101821B930B9F
:100610009C01249FC001259F900D349F900D1124B3
:1006200063E070E00E941E0570930F0160930E015D
:10063000609102017091030120910C0130910D0134
:10064000621B730B80E090E00E94F103AB01BC01E0
:1006500082E090E00E945A016091040170910501CE
:1006600020910E0130910F01621B730B80E090E02E
:100670000E94F103AB01BC0181E090E00E945A01AD
:1006800080910C0190910D019093070180930601D8
:1006900080910E0190910F019093090180930801C0
:1006A0006ECFF8940C945305D9D008F481E00895E6
:1006B0000CD00FC107D140F0FED030F021F45F3FE5
:1006C00019F0F0C0511139C1F3C014D198F3992336
:1006D000C9F35523B1F3951B550BBB27AA27621706
:1006E0007307840738F09F5F5F4F220F331F441F4B
:1006F000AA1FA9F333D00E2E3AF0E0E830D0915083
:100700005040E695001CCAF729D0FE2F27D0660F6F
:10071000771F881FBB1F261737074807AB07B0E8AE
:1007200009F0BB0B802DBF01FF2793585F4F2AF0C4
:100730009E3F510568F0B6C000C15F3FECF3983EA4
:10074000DCF3869577956795B795F7959F5FC9F721
:10075000880F911D9695879597F90895E1E0660FAA
:10076000771F881FBB1F621773078407BA0720F023
:10077000621B730B840BBA0BEE1F88F7E09508958C
:1007800004D06894B111D9C00895BCD088F09F57A7
:1007900090F0B92F9927B751A0F0D1F0660F771FCD
:1007A000881F991F1AF0BA95C9F712C0B13081F0AD
:1007B000C3D0B1E00895C0C0672F782F8827B85FF5
:1007C00039F0B93FCCF3869577956795B395D9F70E
:1007D0003EF490958095709561957F4F8F4F9F4F18
:1007E0000895E89409C097FB3EF490958095709524
:1007F00061957F4F8F4F9F4F9923A9F0F92F96E96D
:10080000BB279395F695879577956795B795F111E1
:10081000F8CFFAF4BB0F11F460FF1BC06F5F7F4F7E
:100820008F4F9F4F16C0882311F096E911C0772390
:1008300021F09EE8872F762F05C0662371F096E899
:10084000862F70E060E02AF09A95660F771F881F68
:10085000DAF7880F9695879597F90895990F00080C
:10086000550FAA0BE0E8FEEF16161706E807F90782
:10087000C0F012161306E407F50798F0621B730B1D
:10088000840B950B39F40A2661F0232B242B252B9E
:1008900021F408950A2609F4A140A6958FEF811D41
:1008A000811D089597F99F6780E870E060E00895E2
:1008B0009FEF80EC089500240A9416161706180678
:1008C0000906089500240A94121613061406050654
:1008D0000895092E0394000C11F4882352F0BB0FE5
:1008E00040F4BF2B11F460FF04C06F5F7F4F8F4F48
:1008F0009F4F089557FD9058440F551F59F05F3F83
:1009000071F04795880F97FB991F61F09F3F79F031
:1009100087950895121613061406551FF2CF4695B3
:10092000F1DF08C0161617061806991FF1CF869535
:100930007105610508940895E894BB276627772719
:10094000CB0197F908958ADF08F48FEF08950BD053
:10095000C0CFB1DF28F0B6DF18F0952309F0A2CFA1
:10096000A7CF1124EACFC6DFA0F3959FD1F3950F4F
:1009700050E0551F629FF001729FBB27F00DB11D23
:10098000639FAA27F00DB11DAA1F649F6627B00DB3
:10099000A11D661F829F2227B00DA11D621F739F9C
:1009A000B00DA11D621F839FA00D611D221F749FAA
:1009B0003327A00D611D231F849F600D211D822FF1
:1009C000762F6A2F11249F5750408AF0E1F0882338
:1009D0004AF0EE0FFF1FBB1F661F771F881F915045
:1009E0005040A9F79E3F510570F05CCFA6CF5F3F06
:1009F000ECF3983EDCF3869577956795B795F79578
:100A0000E7959F5FC1F7FE2B880F911D96958795FF
:100A100097F90895AA1BBB1B51E107C0AA1FBB1F72
:100A2000A617B70710F0A61BB70B881F991F5A957A
:100A3000A9F780959095BC01CD01089597FB092EEB
:100A400007260AD077FD04D0E5DF06D000201AF48F
:100A5000709561957F4F0895F6F7909581959F4F1A
:100A60000895A1E21A2EAA1BBB1BFD010DC0AA1FEF
:100A7000BB1FEE1FFF1FA217B307E407F50720F007
:100A8000A21BB30BE40BF50B661F771F881F991F82
:100A90001A9469F760957095809590959B01AC01CB
:0A0AA000BD01CF010895F894FFCFC7
:060AAA0001009600960019
:00000001FF
