:100000000C9446000C9465000C9465000C946500FB
:100010000C9465000C9465000C9465000C946500CC
:100020000C9465000C9465000C9465000C946500BC
:100030000C9465000C9465000C9465000C946700AA
:100040000C9465000C9465000C9465000C9465009C
:100050000C9465000C9465000C9465000C9465008C
:100060000C9465000C9465000C9465000C9465007C
:100070000C9465000C9465000C9465000C9465006C
:100080000C9465000C9465000C94650011241FBE4F
:10009000CFEFD0E1DEBFCDBF11E0A0E0B1E0E6E3FD
:1000A000F1E000E00BBF02C007900D92A030B10755
:1000B000D9F711E0A0E0B1E001C01D92A130B10775
:1000C000E1F70E9496000C9499000C9400001F9296
:1000D0000F920FB60F9211248F93809100018F5FC2
:1000E000809300018D3761F485B3882319F48FEF75
:1000F00085BB04C085B38F3F09F415BA1092000187
:100100008DE782BF8F910F900FBE0F901F901895B3
:100110009FEF95BB94BB8FE083BF81E082BF91BF0F
:1001200082E087BF8FB780688FBF08950E948800E4
:06013000FFCFF894FFCFA1
:00000001FF
