:100000000C9446000C9417070C942C070C94410791
:100010000C9453070C9465070C9477070C9489078C
:100020000C949B070C9465000C9465000C9465007F
:100030000C9465000C9465000C9465000C946500AC
:100040000C9465000C9465000C9465000C9465009C
:100050000C9465000C9465000C9465000C9465008C
:100060000C9465000C9465000C9465000C9465007C
:100070000C9465000C9465000C9467000C9465006A
:100080000C9465000C9465000C94650011241FBE4F
:10009000CFEFD0E1DEBFCDBF12E0A0E0B1E0E0E104
:1000A000FDE100E00BBF02C007900D92A832B1073E
:1000B000D9F715E0A8E2B2E001C01D92A235B10760
:1000C000E1F70E94E9000C94860E0C9400001F9248
:1000D0000F920FB60F920BB60F9211242F933F93EE
:1000E0004F935F936F937F938F939F93AF93BF9340
:1000F000EF93FF9380919C008334C9F0843428F4FB
:10010000813451F0823411F50EC08535C1F0873548
:10011000C9F08434D9F40FC081E080932A0261E0F1
:100120000E94D40213C081E080932B020FC081E0B3
:1001300080932C020BC081E080932D0207C080E0E9
:1001400090E002C081E090E00E940B06FF91EF91E9
:10015000BF91AF919F918F917F916F915F914F91DF
:100160003F912F910F900BBE0F900FBE0F901F90DD
:1001700018958FB78F778FBF80E00E94930681E03C
:100180000E94930680E040E051EE60E070E00E9443
:10019000870281E040E051EE60E070E00E9487025B
:1001A0000E9458020E9420058FB780688FBF089573
:1001B00020914F05EFE2F2E0819191918135910517
:1001C00008F021E083E0EF3BF807B1F720934F05FB
:1001D0000895EF92FF920F931F93CF93DF930E94A6
:1001E000B90080912A028130B9F48FEF91EEA4E03A
:1001F00081509040A040E1F700C000000E943D0502
:100200008FEF91EEA4E081509040A040E1F700C054
:10021000000010922A02E5CF80912B02813009F074
:100220009BC00E94330601E110E08FEF9DE3A9E43B
:1002300081509040A040E1F700C0000010924F05AF
:10024000CFE2D2E07E0180E090E00E9469058091DB
:10025000500590915105D7018D939D937D01BFEB82
:10026000EB16B3E0FB0679F780E090E00E946905A9
:10027000809150059091510589939993E3E0CF3B8C
:10028000DE0791F78FEF99E6A8E181509040A040FA
:10029000E1F700C0000080912802813081F41092C3
:1002A0002802AFE9BFE01197F1F700C00000C0E9F4
:1002B000D1E081E090E00E9469052197D1F78FEFAE
:1002C00099E6A8E181509040A040E1F700C000000D
:1002D0000E94D800AFE1BEE41197F1F700C0000022
:1002E00080914F05882309F0A0CF8FEF99E6A8E110
:1002F00081509040A040E1F700C0000081E090E014
:100300000E940B06AFE9BFE01197F1F700C00000B3
:1003100080912902813019F41092290204C0015001
:10032000104009F082CF8FEF91EEA4E08150904011
:10033000A040E1F700C000000E943D058FEF91EE64
:10034000A4E081509040A040E1F700C000000E946E
:10035000550510922B0245CF80912C028130E9F493
:10036000C8ECD0E00E9469052197E1F7AFE9BFE052
:100370001197F1F700C0000080912802813051F4FC
:1003800010922802EFE9FFE03197F1F700C000007A
:100390000E94DD0510922C0224CF80912D02813025
:1003A00009F01FCFCFE2D2E06991799181E00E94FC
:1003B000D703F3E0CF3BDF07B9F78FEF93EDA0E36F
:1003C00081509040A040E1F700C00000CFEBD3E0A7
:1003D0006991799181E00E94D70395E0CF34D907E4
:1003E000B9F710922D02FDCE97B1982B97B9369A96
:1003F000349BFECF379824B135B1C901089597B128
:10040000982B97B9369A349BFECF24B135B1C901E8
:1004100008958F929F92AF92BF92CF92DF92EF9208
:10042000FF920F931F93DF93CF930F92CDB7DEB759
:10043000982EADB6BEB6E62EFF249701220F331FCD
:100440008DB79EB7821B930B0FB6F8949EBF0FBE5D
:100450008DBFCDB6DEB60894C11CD11C882400E047
:1004600010E00CC0892D69830E94F401F60181938C
:1004700091936F01080F191F83946981861690F379
:10048000C801B7010E94190ECB010FB6F894BEBE89
:100490000FBEADBE0F90CF91DF911F910F91FF90D6
:1004A000EF90DF90CF90BF90AF909F908F90089586
:1004B0001092610080E487B916B8309A319A329A66
:1004C000379A089587B7816087BF83E882BF83E04A
:1004D00083BF08950E946202089587B7846087BF32
:1004E0001DBC1CBC83E08EBD089587B7806487BFA8
:1004F00014BC15BC0895EDE7F0E080818460808332
:10050000109289001092880010928A0008951F931B
:10051000182F9A01AB0184E0220F331F441F551F8F
:100520008A95D1F760E074E284EF90E00E942D0E8E
:1005300021503040112371F43093900029B980E2AA
:100540008BB988E18AB986E0809395001098119A5A
:10055000579A16C01130A1F4309398002093990057
:1005600080E280939B0088E180939A0086E08093EC
:100570009D008A988B9A80919A00806880939A0057
:100580001F910895882319F0813061F404C05F9BA6
:10059000FECF8CB1089580919B0087FFFCCF8091A6
:1005A0009C00089580E00895882319F0813059F463
:1005B00004C05D9BFECF6CB9089580919B0085FFC0
:1005C000FCCF60939C000895CF92DF92FF920F932F
:1005D0001F93CF93DF93F82EC62EE6016E01D72E20
:1005E000E6010CC08F2D0E94D4022196F801808173
:1005F0008A3021F48F2D6DE00E94D4028E01688133
:10060000662381F7DF91CF911F910F91FF90DF90CB
:10061000CF900895FF920F931F93DF93CF930F9284
:10062000CDB7DEB7182FF62E862F64E60E940D0E8A
:10063000682F605D812F99830E94D4020AE099811E
:10064000892F602F0E940D0E682F605D812F0E9400
:10065000D4028F2D602F0E940D0E905D812F692F87
:100660000E94D4020F90CF91DF911F910F91FF90C4
:100670000895FF920F931F93182F062F862F64E67D
:100680000E940D0EF82E882329F0682F605D812FBF
:100690000E94D402802F64E60E940D0E892F6AE02A
:1006A0000E940D0E882321F0682F605D812F04C009
:1006B000FF2021F0812F60E30E94D402802F6AE0A6
:1006C0000E940D0E905D812F692F0E94D4021F9110
:1006D0000F91FF900895DF92EF92FF920F931F9377
:1006E000CF93DF93D82EEB01CB0168EE73E00E942D
:1006F000190E7C01605D8D2D0E94D40204E610E08D
:10070000C701B8010E94190E605D8D2D0E94D402B0
:10071000CE01B8010E94190E0AE010E0B8010E9453
:10072000190E605D8D2D0E94D402CE01B8010E9489
:10073000190E682F605D8D2D0E94D402DF91CF913C
:100740001F910F91FF90EF90DF900895FF920F930C
:100750001F93CF93DF93F82EEB01CB0168EE73E08C
:100760000E94190E04E610E0B8010E94190E605DA7
:100770008F2D0E94D402CE01B8010E94190E0AE00A
:1007800010E0B8010E94190E605D8F2D0E94D40206
:10079000CE01B8010E94190E682F605D8F2D0E9456
:1007A000D402DF91CF911F910F91FF900895CF92C6
:1007B000DF92FF920F931F93CF93DF93F82EEB01FD
:1007C000CB0160E177E20E94190E6C01605D8F2D14
:1007D0000E94D40208EE13E0C601B8010E94190E6F
:1007E000605D8F2D0E94D402CE01B8010E94190EC7
:1007F00004E610E0B8010E94190E605D8F2D0E9482
:10080000D402CE01B8010E94190E0AE010E0B8012E
:100810000E94190E605D8F2D0E94D402CE01B80196
:100820000E94190E682F605D8F2D0E94D402DF9107
:10083000CF911F910F91FF90DF90CF900895BF92BD
:10084000CF92DF92EF92FF920F931F93CF93DF939C
:10085000B82EEB01CB0160E177E20E94190E8B010B
:100860006115710521F0605D8B2D0E94D402CE01CF
:1008700060E177E20E94190E68EE73E00E94190EA3
:100880007B016115710519F0605D8B2D05C00115A7
:10089000110521F08B2D60E30E94D402CE0168EE99
:1008A00073E00E94190E64E670E00E94190E6B015D
:1008B0006115710519F0605D8B2D08C0E114F1041C
:1008C00019F40115110521F08B2D60E30E94D4026B
:1008D000CE0164E670E00E94190E6AE070E00E94AA
:1008E000190E6115710519F0605D8B2D0BC0C114D7
:1008F000D10431F4E114F10419F40115110521F0CA
:100900008B2D60E30E94D402CE016AE070E00E9469
:10091000190E682F605D8B2D0E94D402DF91CF915C
:100920001F910F91FF90EF90DF90CF90BF900895AF
:10093000EF92FF920F931F93DF93CF93CDB7DEB764
:1009400060970FB6F894DEBF0FBECDBFF82EE62E2F
:10095000DE011196E0E1F1E080E101900D9281501D
:10096000E1F78E2D82958F708E010F5F1F4FF8017A
:10097000E80FF11D8F2D60810E94D4028E2D8F70A3
:10098000F801E80FF11D8F2D60810E94D40260965E
:100990000FB6F894DEBF0FBECDBFCF91DF911F9190
:1009A0000F91FF90EF900895DF92EF92FF920F93D7
:1009B0001F93DF93CF93CDB7DEB760970FB6F89450
:1009C000DEBF0FBECDBFD82E7B01DE011196E0E069
:1009D000F1E080E101900D928150E1F7EF2DFF27CA
:1009E000EF70F0708E010F5F1F4FE00FF11F8D2D24
:1009F00060810E94D402F70194E0F695E7959A95FC
:100A0000E1F7EF70F070E00FF11F8D2D60810E9413
:100A1000D402F701EF70F070E00FF11F8D2D6081AF
:100A20000E94D40260960FB6F894DEBF0FBECDBF11
:100A3000CF91DF911F910F91FF90EF90DF9008957C
:100A40008FEF8ABBDB98DC9ADF9AD99A08958823C6
:100A500011F4DF9A01C0DF988BB38BB390E4892740
:100A60008BBB0895882311F4D99A01C0D9988BB310
:100A70008BB390E289278BBB0895CF93DF93C4EFAC
:100A8000D1E081E00E9427058FE19EE40197F1F714
:100A900000C0000080912802813011F0219789F771
:100AA00010922802DF91CF910895CF93DF93C8EB86
:100AB000D8E880E00E94320587E29AE00197F1F7DA
:100AC00000C000002197A9F710922902DF91CF9171
:100AD0000895882309F056C00E9427058FEE9AE0FA
:100AE0000197F1F700C0000080E00E9427058FEE1B
:100AF0009AE00197F1F700C0000080E090E00E94CA
:100B0000F40164B175B180E090E00E94AB0B2DEC74
:100B10003CEC4CE453E40E947B0A2BE237E846E1CC
:100B20005EE30E9450099B01AC0166E676E68AE32B
:100B300091E40E947B0A2DE33AE047ED5EE30E94D8
:100B4000500920E030E040E251E40E94810920E0B9
:100B500030E040E850E40E9450090E94AD079B013C
:100B6000AC01709351056093500581E090E0B901AC
:100B70000E94D7038FE19EE40197F1F700C00000C7
:100B8000379A08958130C1F40E94270587EC9AE0D6
:100B90000197F1F700C0000081E00E94270587EC73
:100BA0009AE00197F1F700C000008FE19EE4019701
:100BB000F1F700C00000379A0895CF93DF93C0E9A2
:100BC000D1E081E00E9427058FE19EE40197F1F7D3
:100BD00000C000002197A9F78FE99FE00197F1F786
:100BE00000C0000080912802882391F481E00E94D7
:100BF00027058FE19EE40197F1F700C0000081E036
:100C00000E9427058FE19EE40197F1F700C00000E4
:100C1000DF91CF910895CF93DF93882371F4CCEDCA
:100C2000D5E080E00E94320587E29AE00197F1F773
:100C300000C000002197A9F713C0813089F4C8EBE8
:100C4000DBE081E00E94320587E29AE00197F1F74C
:100C500000C0000080912902813011F0219789F7AE
:100C6000DF91CF910895CF93DF93C0E3D5E781E083
:100C70000E9432058AE68A95F1F700C080E090E094
:100C80000E94FF0164B175B180E090E00E94AB0B5F
:100C90002DEC3CEC4CE453E40E947B0A2BE237E859
:100CA00046E15EE30E9450099B01AC0166E676E6F0
:100CB0008AE391E40E947B0A2DE33AE047ED5EE38C
:100CC0000E94500920E030E040E251E40E94810996
:100CD00020E030E040E850E40E9450090E94AD0757
:100CE00070935105609350056134710518F0219798
:100CF00009F0BDCF8FEF9DE3A9E481509040A04063
:100D0000E1F700C00000CCEDD5E081E00E943205A3
:100D1000A7E2BAE01197F1F700C000002197A9F708
:100D2000DF91CF91089588988998882381F48091E4
:100D30006A00826080936A0080916A008E7F80934F
:100D40006A0089B7816089BF88B78E7F5FC08130B4
:100D500081F480916A00886080936A0080916A00C3
:100D60008B7F80936A0089B7826089BF88B78D7F47
:100D70004DC0823081F480916A00806280936A0065
:100D800080916A008F7E80936A0089B7846089BFF2
:100D900088B78B7F3BC0833081F480916A00806884
:100DA00080936A0080916A008F7B80936A0089B784
:100DB000886089BF88B7877F29C0843061F48AB78B
:100DC00082608ABF8AB78E7F8ABF89B7806189BFF8
:100DD00088B78F7E1BC0853061F48AB788608ABF70
:100DE0008AB78B7F8ABF89B7806289BF88B78F7DBA
:100DF0000DC0863069F48AB780628ABF8AB78F7E59
:100E00008ABF89B7806489BF88B78F7B88BF089500
:100E1000873061F48AB780688ABF8AB78F7B8ABFC0
:100E200089B7806889BF88B78F7788BF08951F9278
:100E30000F920FB60F9211248F938FB78F778FBFBA
:100E400081E0809328028FB780688FBF8F910F90C9
:100E50000FBE0F901F9018951F920F920FB60F9212
:100E600011248F938FB78F778FBF81E080932902F2
:100E70008FB780688FBF8F910F900FBE0F901F901C
:100E800018951F920F920FB60F9211248F938FB760
:100E90008F778FBF8FB780688FBF8F910F900FBEF6
:100EA0000F901F9018951F920F920FB60F9211245A
:100EB0008F938FB78F778FBF8FB780688FBF8F91DA
:100EC0000F900FBE0F901F9018951F920F920FB6A4
:100ED0000F9211248F938FB78F778FBF8FB7806852
:100EE0008FBF8F910F900FBE0F901F9018951F927C
:100EF0000F920FB60F9211248F938FB78F778FBFFA
:100F00008FB780688FBF8F910F900FBE0F901F908B
:100F100018951F920F920FB60F9211248F938FB7CF
:100F20008F778FBF8FB780688FBF8F910F900FBE65
:100F30000F901F9018951F920F920FB60F921124C9
:100F40008F938FB78F778FBF8FB780688FBF8F9149
:100F50000F900FBE0F901F901895EF92FF920F9376
:100F60001F937B018C0120E030E040E05FE40E94B1
:100F7000290B87FD11C0C801B70120E030E040E037
:100F80005FE40E9450090E94590B9B01AC01205064
:100F900030404040504806C0C801B7010E94590B7C
:100FA0009B01AC01B901CA011F910F91FF90EF9015
:100FB0000895A0E0B0E0EFEDF7E00C94530EFC01D3
:100FC000EA018081823008F438C1DB019C919230C3
:100FD00008F430C1843059F4943009F02EC1918165
:100FE00011968C911197981709F021C126C1943060
:100FF00009F420C19230B1F4823009F01EC1CA0157
:10100000AF0128E0DA010D90AD01DC010D92CD01B8
:101010002150C1F7DB0111968C91119791818923A1
:1010200089830AC1823009F405C1C280D380DB0103
:1010300012966D907C90139724813581468157815B
:101040001496ED90FD900D911C911797C60186198D
:1010500097095C0197FF04C0AA24BB24A81AB90A07
:10106000B0E2AB16B1040CF061C0181619066CF5AD
:10107000370148010A2C04C09694879477946794AA
:101080000A94D2F781E090E0A0E0B0E00A2C04C01E
:10109000880F991FAA1FBB1F0A94D2F70197A109B5
:1010A000B1098E219F21A023B123EE24FF248701C3
:1010B000E3940097A105B10519F4EE24FF248701FC
:1010C000E628F728082919293CC00097D1F1CA0C55
:1010D000DB1C39014A010A2C04C09694879477944A
:1010E00067940A94D2F781E090E0A0E0B0E00A2C87
:1010F00004C0880F991FAA1FBB1F0A94D2F701973B
:10110000A109B10982239323A423B52321E030E070
:1011100040E050E00097A105B10519F420E030E06F
:10112000A90126293729482959290BC06C147D04A7
:1011300024F4EE24FF24870104C0630120E030E0A2
:10114000A9018181FB019181891709F445C0882398
:1011500049F0D801C701821B930BA40BB50B9C016E
:10116000AD0104C02E193F09400B510B57FD04C0BF
:101170001982DB82CA820BC081E08983DB82CA824A
:1011800050954095309521953F4F4F4F5F4F2C83A1
:101190003D834E835F830DC0880F991FAA1FBB1F1D
:1011A0008C839D83AE83BF838A819B8101979B83C0
:1011B0008A838C819D81AE81BF819C01AD012150CC
:1011C0003040404050402F3FEFEF3E07EFEF4E07DB
:1011D000EFE35E0708F30BC08983DB82CA822E0D22
:1011E0003F1D401F511F2C833D834E835F8383E04F
:1011F00088832C813D814E815F8157FF1DC0DA01BC
:10120000C90181709070A070B07056954795379560
:101210002795822B932BA42BB52B8C839D83AE8398
:10122000BF838A819B8101969B838A8305C0E0E20C
:10123000F1E003C0FB0101C0FE01CF01CDB7DEB775
:10124000EEE00C946F0EA0E2B0E0E9E2F9E00C945D
:101250005B0E69837A838B839C832D833E834F83CC
:10126000588789E0E82EF12CEC0EFD1ECE01019688
:10127000B7010E944B0D8E010F5E1F4FCE010596E8
:10128000B8010E944B0DC701B801AE01475E5F4F28
:101290000E94D9070E947D0CA096E6E00C94770E80
:1012A000A0E2B0E0E6E5F9E00C945B0E69837A8396
:1012B0008B839C832D833E834F8358878E01075FEA
:1012C0001F4FCE010196B8010E944B0D91E1E92E0E
:1012D000F12CEC0EFD1ECE010596B7010E944B0DC0
:1012E0008A8991E089278A8BC801B701AE01475EE0
:1012F0005F4F0E94D9070E947D0CA096E6E00C94F7
:10130000770EA0E2B0E0E7E8F9E00C944F0E6983B5
:101310007A838B839C832D833E834F835887CE01B2
:101320000196BE01675F7F4F0E944B0DCE0105966F
:10133000BE016F5E7F4F0E944B0D9985923078F011
:1013400089898230C0F0943019F4823041F4CBC0E6
:10135000843019F4923079F4C6C0923051F481E0AF
:101360002A859A89291709F480E08A87CE0109968F
:10137000BCC0823051F481E02A859A89291709F48A
:1013800080E08A8BCE014196B0C06D847E848F84CC
:101390009888ED88FE880F89188DE0E2F0E080E003
:1013A00090E0DC01AA24BB24650120E030E0A90123
:1013B000B3016170707061157105D1F02E0D3F1D84
:1013C000401F511F15012601280E391E4A1E5B1EA3
:1013D00081E090E0A0E0B0E02E153F054007510706
:1013E00018F080E090E0DC01820D931DA41DB51D76
:1013F000AA0CBB1CCC1CDD1C17FF09C061E0262E0B
:10140000312C412C512CA228B328C428D52831973F
:1014100049F0EE0CFF1C001F111F969487947794DF
:101420006794C6CF6B897C89EB85FC856E0F7F1F27
:101430006E5F7F4F7C8F6B8F61E0EA857A89E7175B
:1014400009F460E06A8F6B8D7C8D10C0FC01E17047
:10145000F070309729F05695479537952795506845
:10146000B695A795979587956F5F7F4FB7FDEECFA0
:101470000CC0880F991FAA1FBB1F57FD8160220F48
:10148000331F441F551F615070408030E0E09E07BD
:10149000E0E0AE07E0E4BE0760F36B8F7C8F6FE7A0
:1014A000E62EF12C012D112DE822F9220A231B230F
:1014B00060E4E616F1040105110561F487FD0AC038
:1014C000211531054105510529F0805C9F4FAF4F33
:1014D000BF4F80788D8F9E8FAF8FB8A383E0898FA9
:1014E000CE01499602C080E291E00E947D0CA09658
:1014F000E2E10C946B0EA8E1B0E0E1E8FAE00C94B4
:10150000570E69837A838B839C832D833E834F831D
:1015100058878E01075F1F4FCE010196B8010E94C8
:101520004B0D81E1E82EF12CEC0EFD1ECE0105964F
:10153000B7010E944B0D9985923008F483C08989C8
:10154000823008F47BC02A853A8923272A87943081
:1015500011F0923021F4981709F06CC071C08430FA
:1015600039F41D861E861F86188A1C861B866AC053
:10157000823019F484E0898765C08B859C852B892E
:101580003C89821B930B9C878B872D853E854F85DD
:101590005889ED88FE880F89188D2E153F05400764
:1015A000510738F4220F331F441F551F01979C87A2
:1015B0008B876FE170E0A12CB12CC12CA0E4DA2E56
:1015C00080E090E0DC012E153F054007510740F018
:1015D0008A299B29AC29BD292E193F09400B510BA3
:1015E000D694C794B794A794220F331F441F551F56
:1015F0006150704041F76FE7E62EF12C012D112D5F
:10160000E822F9220A231B2360E4E616F10401050F
:10161000110561F487FD0AC0211531054105510509
:1016200029F0805C9F4FAF4FBF4F80788D879E879A
:10163000AF87B88B8E01075F1F4F04C0870102C0C0
:1016400000E211E0C8010E947D0C6896EAE00C946B
:10165000730EA8E1B0E0EFE2FBE00C945B0E69834F
:101660007A838B839C832D833E834F8358878E019F
:10167000075F1F4FCE010196B8010E944B0D81E11B
:10168000E82EF12CEC0EFD1ECE010596B7010E944E
:101690004B0D8985823040F08989823028F0C8015D
:1016A000B7010E94B40D01C08FEF6896E6E00C947C
:1016B000770EACE0B0E0EFE5FBE00C945F0E6983E1
:1016C0007A838B839C83CE010196BE016B5F7F4F33
:1016D0000E944B0D8D81823081F1823070F1843017
:1016E00021F48E81882369F10AC02F81388537FD66
:1016F00024C06E812F3131053CF0662311F120E0CA
:1017000030E040E050E821C08EE190E0821B930B76
:1017100029853A854B855C8504C056954795379554
:1017200027958A95D2F7662381F05095409530959C
:1017300021953F4F4F4F5F4F08C020E030E0A90197
:1017400004C02FEF3FEF4FEF5FE7B901CA012C96BE
:10175000E2E00C947B0EA8E0B0E0E1EBFBE00C943F
:10176000590E7B018C011A82611571058105910565
:1017700019F482E089835FC083E089838EE1C82EFB
:10178000D12CDC82CB82ED82FE820F831887C801C8
:10179000B7010E94230CFC013197F7FF3AC0AA273A
:1017A000BB27AE1BBF0B21E030E040E050E00A2E2B
:1017B00004C0220F331F441F551F0A94D2F7215033
:1017C0003040404050402E213F214023512361E0D2
:1017D00070E080E090E0211531054105510519F4D4
:1017E00060E070E0CB0104C016950795F794E7948C
:1017F000AA95D2F7E62AF72A082B192BED82FE824A
:101800000F8318878EE190E08E1B9F0B9C838B8348
:1018100012C0309781F00E2E04C0EE0CFF1C001F8A
:10182000111F0A94D2F7ED82FE820F831887CE1A19
:10183000DF0ADC82CB82CE0101960E947D0C2896C5
:10184000E8E00C94750EAF92BF92CF92DF92EF92C8
:10185000FF920F931F937B018C0180E0E81680E0DC
:10186000F80681E0080780E0180758F4EFEFEE165D
:10187000F1040105110509F090F480E090E0DC012D
:1018800017C0F0E0EF16F0E0FF06F0E00F07F1E020
:101890001F0750F480E190E0A0E0B0E009C088E0CC
:1018A00090E0A0E0B0E004C088E190E0A0E0B0E00B
:1018B00020E230E040E050E0281B390B4A0B5B0B84
:1018C0005701680104C0D694C794B794A7948A9529
:1018D000D2F7D601C501885D9E4FFC018081281B8F
:1018E000310941095109C9011F910F91FF90EF90F2
:1018F000DF90CF90BF90AF900895EF92FF920F933B
:101900001F93CF93DF93FC0124813581468157815A
:1019100061818081823020F44061EFEFF0E0A3C06C
:10192000843009F49BC0823009F492C0211531053E
:101930004105510509F48FC00280F381E02D8FEF3E
:10194000E238F8070CF05AC0C2E8DFEFCE1BDF0B1D
:10195000CA31D1056CF579018A010C2E04C01695A7
:101960000795F794E7940A94D2F781E090E0A0E01D
:10197000B0E00C2E04C0880F991FAA1FBB1F0A9449
:10198000D2F70197A109B10982239323A423B52398
:1019900021E030E040E050E00097A105B10519F4E6
:1019A00020E030E0A9012E293F29402B512B03C014
:1019B00020E030E0A901DA01C9018F779070A070B2
:1019C000B07080349105A105B10539F427FF09C035
:1019D000205C3F4F4F4F5F4F04C0215C3F4F4F4F44
:1019E0005F4FE1E0F0E0203080E0380780E048071A
:1019F00080E4580728F5E0E0F0E022C0E038F10587
:101A00006CF5E158FF4FDA01C9018F779070A07033
:101A1000B07080349105A105B10539F427FF09C0E4
:101A2000205C3F4F4F4F5F4F04C0215C3F4F4F4FF3
:101A30005F4F57FF05C056954795379527953196C7
:101A400087E056954795379527958A95D1F70BC02E
:101A5000E0E0F0E005C0E0E0F0E005C0EFEFF0E02E
:101A600020E030E0A9018E2F879588278795942F55
:101A70009F77679566276795E695E22EA92FA82B95
:101A8000FE2FF62B622F732F8A2F9F2FCDB7DEB735
:101A9000E6E00C94770EDC01FB012C9111963C9151
:101AA000119712968C911297482F4F7750E0982FEC
:101AB000991F9927991F13966C911397862F880F5A
:101AC000892B90E0661F6627661F6183009739F5B2
:101AD000211531054105510511F482E029C082E844
:101AE0009FEF9383828367E0220F331F441F551FAC
:101AF0006A95D1F783E0808309C0220F331F441F0A
:101B0000551F82819381019793838283203080E0E7
:101B1000380780E0480780E4580778F320C08F3FFB
:101B2000910579F4211531054105510519F484E039
:101B30008083089544FF03C081E0808310C0108239
:101B40000EC08F5790409383828383E0808387E029
:101B5000220F331F441F551F8A95D1F750642483E9
:101B60003583468357830895FC01DB0190819230D1
:101B700008F449C08C91823008F445C0943051F487
:101B800061818430B1F511962C91119730E0261BBC
:101B9000310941C0843021F0923041F48230B1F1FA
:101BA00011968C9111978823A1F12DC0618182300B
:101BB00001F111968C9111976817D9F42281338124
:101BC00012968D919C9113978217930794F0281782
:101BD0003907BCF0248135814681578114968D9157
:101BE0009D910D90BC91A02D82179307A407B50776
:101BF00018F4662341F00DC0281739074A075B0720
:101C000028F4662331F021E030E005C020E030E028
:101C100002C02FEF3FEFC9010895991B79E004C07E
:101C2000991F961708F0961B881F7A95C9F780951B
:101C30000895AA1BBB1B51E107C0AA1FBB1FA61713
:101C4000B70710F0A61BB70B881F991F5A95A9F765
:101C500080959095BC01CD010895A1E21A2EAA1B92
:101C6000BB1BFD010DC0AA1FBB1FEE1FFF1FA2174C
:101C7000B307E407F50720F0A21BB30BE40BF50B49
:101C8000661F771F881F991F1A9469F760957095D2
:101C9000809590959B01AC01BD01CF0108952F92D5
:101CA0003F924F925F926F927F928F929F92AF92EC
:101CB000BF92CF92DF92EF92FF920F931F93CF9339
:101CC000DF93CDB7DEB7CA1BDB0B0FB6F894DEBFD0
:101CD0000FBECDBF09942A88398848885F846E84F6
:101CE0007D848C849B84AA84B984C884DF80EE8040
:101CF000FD800C811B81AA81B981CE0FD11D0FB649
:101D0000F894DEBF0FBECDBFED010895F894FFCF6C
:101D10003031323334353637383941424344454621
:101D20003031323334353637383941424344454611
:101D30000000000000000000000102020303030392
:101D4000040404040404040405050505050505054B
:101D5000050505050505050506060606060606062B
:101D60000606060606060606060606060606060613
:101D700006060606060606060707070707070707FB
:101D800007070707070707070707070707070707E3
:101D900007070707070707070707070707070707D3
:101DA00007070707070707070707070707070707C3
:101DB00007070707070707070808080808080808AB
:101DC0000808080808080808080808080808080893
:101DD0000808080808080808080808080808080883
:101DE0000808080808080808080808080808080873
:101DF0000808080808080808080808080808080863
:101E00000808080808080808080808080808080852
:101E10000808080808080808080808080808080842
:101E20000808080808080808080808080808080832
:081E300008080808080808086A
:00000001FF
