:100000000C9446000C945D000C945D000C945D0013
:100010000C945D000C945D000C945D000C945D00EC
:100020000C945D000C945D000C945D000C945D00DC
:100030000C945D000C945D000C945D000C945D00CC
:100040000C945D000C945D000C945D000C945D00BC
:100050000C945D000C945D000C945D000C945D00AC
:100060000C945D000C945D000C945D000C945D009C
:100070000C945D000C945D000C945D000C945D008C
:100080000C945D000C945D000C945D0011241FBE67
:10009000CFEFD0E1DEBFCDBF11E0A0E0B1E0E6EFF1
:1000A000F0E000E00BBF02C007900D92A030B10756
:1000B000D9F70E945F000C9479000C9400008FEF38
:1000C00084BB11BA20E040E951E0809B02C020E0EF
:1000D00007C0222321F0203811F0220F01C021E0B7
:1000E00025BB88EB9BE0FA013197F1F70197D9F72F
:0600F000ECCFF894FFCFF5
:00000001FF
