:100000000C9487000C9491000C9491000C94910036
:100010000C9491000C9491000C9491000C9491001C
:100020000C9491000C9491000C9491000C9491000C
:100030000C9491000C9491000C9491000C949100FC
:100040000C9491000C9491000C9491000C949100EC
:100050000C9491000C9491000C9491000C949100DC
:100060000C9491000C9491000C9491000C949100CC
:100070000C9491000C9491000C9491000C949100BC
:100080000C9491000C9491000C94910007634236FB
:10009000B79BD8A71A39685618AEBAAB558C1D3C19
:1000A000B7CC5763BD6DEDFD753EF6177231BF00DD
:1000B0000000803F08000000BE922449123EABAA17
:1000C000AA2ABECDCCCC4C3E00000080BEABAAAA72
:1000D000AA3E00000000BF000000803F00000000BA
:1000E00000084178D3BB4387D1133D190E3CC3BDF3
:1000F0004282AD2B3E68EC8276BED98FE1A93E4CA0
:1001000080EFFFBE01C4FF7F3F000000000011240C
:100110001FBECFEFD0E1DEBFCDBF0E940F010C9418
:10012000A1010C94000097B1982B97B980E487B98E
:10013000369A349BFECF24B135B1C90108951F937F
:10014000182F9A01AB0164E0220F331F441F551F83
:100150006A95D1F760E074E284EF90E00E940705B1
:100160002150304040405040112389F4BB27A52F37
:10017000942F832F8093900029B980E28BB988E96E
:100180008AB986E0809395001098119A15C01130B5
:1001900099F4BB27A52F942F832F80939800209349
:1001A000990080E280939B0088E980939A0086E022
:1001B00080939D008A988B9A1F9108958FB78F77AF
:1001C0008FBF80E487B987E886B9E1E6F0E08081F7
:1001D0008E7F80838FB780688FBF80E040E855E2D4
:1001E00060E070E00E949F0081E040E855E260E03E
:1001F00070E00E949F008FB780688FBF08958823AA
:1002000019F0813059F404C05D9BFECF6CB908959C
:1002100080919B0085FFFCCF60939C0008950E9415
:10022000DE0082E00E9493008FE39CE90197F1F7E2
:1002300000C0000064B175B180E090E00E9435021A
:1002400024E63CEC4DE15EEB0E94260326E636EA0E
:1002500040E354E40E94C30220E030E042E153E472
:100260000E94A4010E94090280E00E94FF00D9CFF1
:10027000CF92DF92EF92FF920F931F93CF93DF9372
:10028000EC0160E177E20E94F3046C01A0E3FA2E36
:10029000F60E80E06F2D0E94FF0008EE13E0C6010D
:1002A000B8010E94F304F0E3CF2EC60E80E06C2D5F
:1002B0000E94FF00CE01B8010E94F30404E610E0A2
:1002C000B8010E94F304E0E3EE2EE60E80E06E2D0E
:1002D0000E94FF00CE01B8010E94F3040AE010E082
:1002E000B8010E94F30470E3D72ED60E80E06D2D86
:1002F0000E94FF00CE01B8010E94F304082F005DA8
:1003000080E0602F0E94FF0081E06F2D0E94FF00BF
:1003100081E06C2D0E94FF0081E06E2D0E94FF00A5
:1003200081E06D2D0E94FF0081E0602F0E94FF00A0
:10033000DF91CF911F910F91FF90EF90DF90CF90C1
:100340000895F8940C9429055058BB27AA270ED07D
:10035000E0C0D1D030F0D6D020F031F49F3F11F47E
:100360001EF4C6C00EF4E095E7FBBCC0E92FE2D056
:1003700080F3BA17620773078407950718F071F4C2
:100380009EF5FAC00EF4E0950B2EBA2FA02D0B01AE
:10039000B90190010C01CA01A0011124FF27591BCA
:1003A00099F0593F50F4503E68F11A16F040A22FD0
:1003B000232F342F4427585FF3CF46953795279541
:1003C000A795F0405395C9F77EF41F16BA0B620B40
:1003D000730B840BBAF09150A1F0FF0FBB1F661F87
:1003E000771F881FC2F70EC0BA0F621F731F841FCA
:1003F00048F4879577956795B795F7959E3F08F0F0
:10040000B3CF9395880F08F09927EE0F97958795AE
:10041000089598D088F09F5790F0B92F9927B75139
:10042000A0F0D1F0660F771F881F991F1AF0BA95B8
:10043000C9F712C0B13081F09FD0B1E008959CC0DF
:10044000672F782F8827B85F39F0B93FCCF38695AE
:1004500077956795B395D9F73EF49095809570950B
:1004600061957F4F8F4F9F4F0895E89409C097FB88
:100470003EF490958095709561957F4F8F4F9F4F7B
:100480009923A9F0F92F96E9BB279395F6958795BF
:1004900077956795B795F111F8CFFAF4BB0F11F482
:1004A00060FF1BC06F5F7F4F8F4F9F4F16C0882329
:1004B00011F096E911C0772321F09EE8872F762F5F
:1004C00005C0662371F096E8862F70E060E02AF0A0
:1004D0009A95660F771F881FDAF7880F969587958C
:1004E00097F9089597F99F6780E870E060E00895B4
:1004F0009FEF80EC089500240A941616170618063C
:100500000906089500240A94121613061406050617
:100510000895092E0394000C11F4882352F0BB0FA8
:1005200040F4BF2B11F460FF04C06F5F7F4F8F4F0B
:100530009F4F089557FD9058440F551F59F05F3F46
:1005400071F04795880F97FB991F61F09F3F79F0F5
:1005500087950895121613061406551FF2CF469577
:10056000F1DF08C0161617061806991FF1CF8695F9
:100570007105610508940895E894BB2766277727DD
:10058000CB0197F908950BD0C4CFB5DF28F0BADFBF
:1005900018F0952309F0A6CFABCF1124EECFCADF18
:1005A000A0F3959FD1F3950F50E0551F629FF00186
:1005B000729FBB27F00DB11D639FAA27F00DB11DDF
:1005C000AA1F649F6627B00DA11D661F829F222768
:1005D000B00DA11D621F739FB00DA11D621F839FEF
:1005E000A00D611D221F749F3327A00D611D231FC5
:1005F000849F600D211D822F762F6A2F11249F5713
:1006000050408AF0E1F088234AF0EE0FFF1FBB1F35
:10061000661F771F881F91505040A9F79E3F5105D4
:1006200070F060CFAACF5F3FECF3983EDCF3869585
:1006300077956795B795F795E7959F5FC1F7FE2B7F
:10064000880F911D9695879597F90895FA01EE0FF9
:10065000FF1F30962105310599F16115710561F48F
:100660008038BFE39B0749F168949038810561F0B9
:100670008038BFEF9B0741F0992342F5FF3FE1052A
:100680003105210511F1E8940894E795D901AA23D1
:1006900029F4AB2FBE2FF85FD0F310C0FF5F70F4CA
:1006A000A695E0F7F73950F019F0FF3A38F49F7744
:1006B0009F930CD00F9007FC905808953EF018CFF0
:1006C00060E070E080E89FE308954FE79F775F93D5
:1006D0004F933F932F939ED02F913F914F915F91D6
:1006E00052DF05C019F40EF0FDCE46CF01CF2ADF50
:1006F000C8F39638C0F707F80F92E8942BE33AEA6C
:1007000048EB5FE74EDF0F920F920F924DB75EB747
:100710000F92C0D0ECE8F0E016D04F915F91EF91CE
:10072000FF91E595EE1FFF1F49F0FE57E068442753
:10073000EE0F441FFA95E1F74195550B32D00F901B
:1007400007FE26C00895DF93CF931F930F93FF9268
:10075000EF92DF927B018C01689405C0DA2EEF01E5
:100760001EDFFE01E894A5912591359145915591A3
:10077000AEF3EF01FBDDFE019701A801DA9479F7F2
:10078000DF90EF90FF900F911F91CF91DF9108952F
:100790009B01AC0160E070E080E89FE3AEC0A2CEB8
:1007A00014C1D0DEE8F39923D9F3940F511DBBF3A4
:1007B0009150504094F059F0882332F0660F771F23
:1007C000881F91505040C1F79E3F510544F7880F54
:1007D000911D9695879597F908955F3FACF0983EE7
:1007E0009CF0BB27869577956795B79508F4B1601F
:1007F0009395C1F7BB0F58F711F460FFE8CF6F5F17
:100800007F4F8F4F9F4FE3CFB8CE0EF0DEC070CE3C
:10081000689468CE97DEC8F39923D1F3C6F3DF93CB
:10082000CF931F930F93FF92C92FDD2788232AF0C0
:100830002197660F771F881FDAF720E030E040E845
:100840005FEB9FE3883920F0803E30F021968F7770
:100850007CDDE4EBF0E003C078DDE1EEF0E073DF97
:100860008B01BE01EC01FB2E6F5771097595771F47
:10087000880B990BFCDD28E132E741E35FE38FDE73
:10088000AF2D9801AE01FF900F911F91CF91DF9195
:100890006DDD3FCEFA01DC01AA0FBB1F9B01AC014D
:1008A000BF5728F422273327442750781FC0B75159
:1008B00088F4AB2F0024469537952795011CA39506
:1008C000D2F3002069F0220F331F441FB395DAF3EF
:1008D0000DD03ACD61307105A0E88A07B94630F4F1
:1008E0009B01AC016627772788279078309621F006
:1008F000208331834283538308950CD00ACE02DED5
:1009000040F0F9DD30F021F45F3F19F0EBCD5111EB
:1009100034CEEECD0FDE98F39923C9F35523B1F30E
:10092000951B550BBB27AA2762177307840738F05E
:100930009F5F5F4F220F331F441FAA1FA9F333D0BD
:100940000E2E3AF0E0E830D091505040E695001C71
:10095000CAF729D0FE2F27D0660F771F881FBB1F2D
:10096000261737074807AB07B0E809F0BB0B802D07
:10097000BF01FF2793585F4F2AF09E3F510568F053
:10098000B1CDFBCD5F3FECF3983EDCF386957795D8
:100990006795B795F7959F5FC9F7880F911D969555
:1009A000879597F90895E1E0660F771F881FBB1FB1
:1009B000621773078407BA0720F0621B730B840B5E
:1009C000BA0BEE1F88F7E09508959F3F31F09150E4
:1009D00020F4879577956795B795880F911D969523
:1009E000879597F90895AA1BBB1B51E107C0AA1F61
:1009F000BB1FA617B70710F0A61BB70B881F991FC0
:100A00005A95A9F780959095BC01CD010895A1E272
:100A10001A2EAA1BBB1BFD010DC0AA1FBB1FEE1F78
:100A2000FF1FA217B307E407F50720F0A21BB30BC3
:100A3000E40BF50B661F771F881F991F1A9469F73F
:100A400060957095809590959B01AC01BD01CF019B
:060A50000895F894FFCFA9
:00000001FF
